:020000040800F2
:1000000000000120E50600084D0500084F05000826
:1000100051050008530500085505000800000000C0
:10002000000000000000000000000000570500086C
:1000300059050008000000005B0500085D05000888
:100040002D0700082D0700082D0700082D070008C0
:100050002D0700082D0700082D0700082D070008B0
:100060002D0700082D0700082D0700082D070008A0
:100070002D0700082D0700082D0700082D07000890
:100080002D0700082D0700082D0700082D07000880
:100090002D0700082D0700082D0700082D07000870
:1000A0002D0700082D0700082D0700082D07000860
:1000B0002D0700082D0700082D0700082D07000850
:1000C0002D0700082D0700082D0700082D07000840
:1000D0002D070008650500082D0700082D070008FA
:1000E0002D0700082D0700082D0700082D07000820
:1000F0002D0700082D0700082D0700082D07000810
:100100002D0700082D0700082D0700082D070008FF
:100110002D0700082D0700082D0700082D070008EF
:100120002D0700082D0700082D0700082D070008DF
:1001300000000000000000000000000000000000BF
:1001400000000000000000000000000000000000AF
:10015000000000000000000000000000000000009F
:10016000000000000000000000000000000000008F
:10017000000000000000000000000000000000007F
:10018000000000000000000000000000000000006F
:10019000000000000000000000000000000000005F
:1001A000000000000000000000000000000000004F
:1001B000000000000000000000000000000000003F
:1001C000000000000000000000000000000000002F
:1001D000000000000000000000000000000000001F
:0401E0005FF8E0F1F3
:1001E40008B500F07BF808BD00B587B002468DF86D
:1001F40017104FF4FA630293012301930DF11701D1
:100204000091A021044801F0BDF8052000F0D8FABF
:1002140007B05DF804FB00BF7000002000B587B094
:1002240002464FF4FA630293012301930DF117017F
:100234000091A121034801F057F99DF8170007B078
:100244005DF804FB7000002000B585B04FF4FA633C
:1002540002930192009101230246A021044801F077
:1002640091F8052000F0ACFA05B05DF804FB00BF7E
:100274007000002000B585B04FF4FA630293019238
:10028400009101230246A121024801F02DF905B095
:100294005DF804FB7000002084B00F4B9A6942F0B3
:1002A40010029A619A6902F010020192019A9A6905
:1002B40042F008029A619A6902F008020292029AD4
:1002C4009A6942F004029A619B6903F00403039360
:1002D400039B04B0704700BF0010024008B50B48F0
:1002E4000B4B03600B4B436000238360C3604FF4EC
:1002F4008042026143618361C361036200F064FF71
:1003040000B908BD00F03AF8FBE700BF7000002018
:1003140000580040A086010010B586B00023029367
:100324000393049305930268114B9A4201D006B0DB
:1003340010BD104CA36943F00803A361A36903F043
:1003440008030093009B4FF440630293122303932A
:100354000323059302A9084800F08CFBE36943F4E6
:100364008003E361E36903F480030193019BDEE707
:100374000058004000100240000C014072B6FEE735
:1003840000B591B02822002106A802F0FBF8002352
:1003940001930293039304930593012206924FF46D
:1003A400803307930A9202220D920E934FF4E013C6
:1003B4000F9306A801F05CFA80B90F230193022180
:1003C4000291002303934FF480620492059301A8E1
:1003D40001F080FC20B911B05DF804FBFFF7CEFFFB
:1003E400FFF7CCFF00B589B000F0C6F9FFF7C8FFEE
:1003F400FFF752FF00F016F9FFF770FFFFF7F0FE6A
:1004040061210020FFF7F0FE0020FFF707FF0146FF
:100414008DF81F00374802F0BDF8374C42F21073D4
:1004240001220DF11F01204601F04DFE334E42F230
:10043400107301223146204601F045FE304B93E80B
:1004440003000590ADF818100025CDF81A500522C8
:1004540005A90120FFF7F8FE0120FFF7DFFE8DF864
:10046400130042F2107301220DF11301204601F032
:100474002AFE42F2107301223146204601F023FE87
:100484000220FFF7CBFE8DF8120042F21073012216
:100494000DF11201204601F016FE42F21073012202
:1004A4003146204601F00FFE0320FFF7B7FE8DF81A
:1004B400110042F2107301220DF11101204601F0E6
:1004C40002FE42F2107301223146204601F0FBFD88
:1004D40001950295ADF80C50062201A92846FFF7B4
:1004E400C9FE42F210730A2201A9204601F0EBFD75
:1004F400FEE700BFE4340008CC000020EC34000820
:10050400D834000882B00E4B9A6942F001029A6115
:100514009A6902F001020092009ADA6942F080526C
:10052400DA61DB6903F080530193019B054A536848
:1005340023F0E06343F00073536002B0704700BFE0
:100544000010024000000140FEE7FEE7FEE7FEE780
:10055400FEE770477047704708B500F01FF908BD03
:1005640008B5024801F0A0FE08BD00BFCC00002081
:10057400024B01221A70024B19807047C4000020FC
:10058400C500002070B50C461646002506E0AFF302
:100594000080214601F8010B01350C46B542F6DB1B
:1005A400304670BD70B50C461646002504E014F8BC
:1005B400010BAFF300800135B542F8DB304670BD66
:1005C4004FF0FF3070474FF400534B6000207047EA
:1005D400012070470020704710B503460C4A0D49AE
:1005E4000D48006840B10C4800680344521A934215
:1005F40006D8094A136010BD0748084C0460F2E7A6
:1006040001F096FF0C2303604FF0FF30F3E700BFC7
:100614000000012000040000C80000202801002080
:100624007047000008B50A480A4B03604FF4E133F1
:10063400436000238360C36003610C2242618361D1
:10064400C36101F010FD00B908BDFFF797FEFBE799
:10065400CC0000200038014030B587B0002302935D
:1006640003930493059302681B4B9A4201D007B08D
:1006740030BD03F558439A6942F480429A619A69FD
:1006840002F480420092009A9A6942F004029A614C
:100694009B6903F004030193019B4FF400730293DD
:1006A40002230393032305930C4D02A9284600F06B
:1006B400E1F94FF48063029300240394049402A9A3
:1006C400284600F0D7F922462146252000F09EF85E
:1006D400252000F0D3F8CAE70038014000080140A3
:1006E400FFF79EFF0B480C490C4A002302E0D45844
:1006F400C4500433C4188C42F9D3094A094C00236A
:1007040001E013600432A242FBD301F017FFFFF7AC
:1007140069FE70470000002070000020B435000816
:100724007000002028010020FEE7000010B50446F8
:100734000E4B18784FF47A73B3FBF0F30C4A10683D
:10074400B0FBF3F000F0A8F868B90F2C01D9012030
:100754000AE0002221464FF0FF3000F057F8054B25
:100764001C60002000E0012010BD00BF0400002038
:10077400000000200800002008B5074A136843F071
:1007840010031360032000F02FF80220FFF7CEFFC0
:10079400FFF7B8FE002008BD00200240034A11689C
:1007A400034B1B780B441360704700BF14010020F7
:1007B40004000020014B1868704700BF140100209A
:1007C40038B50446FFF7F6FF0546B4F1FF3F02D003
:1007D400044B1B781C44FFF7EDFF401BA042FAD3E7
:1007E40038BD00BF04000020074AD36823F4E06347
:1007F4001B041B0C000200F4E060034343F0BF63DE
:1008040043F40033D360704700ED00E000B5194BAA
:10081400DB68C3F30223C3F1070CBCF1040F28BF48
:100824004FF0040C03F1040EBEF1060F18D9033B7C
:100834004FF0FF3E0EFA0CFC21EA0C0199400EFA2F
:1008440003F322EA0303194300280BDB0901C9B2AD
:1008540000F1604000F5614080F800135DF804FB8E
:100864000023E5E700F00F000901C9B2024B195457
:10087400F4E700BF00ED00E014ED00E0002807DB22
:1008840000F01F02400901239340024A42F820303D
:10089400704700BF00E100E00138B0F1807F0BD267
:1008A4004FF0E0235861054AF02182F8231000201C
:1008B400986107221A6170470120704700ED00E03B
:1008C40090F82130DBB2022B06D00423836300238B
:1008D40080F82030012070470268136823F00E036B
:1008E40013600268136823F001031360036CC16B87
:1008F400012202FA03F34B6080F82120002380F8E0
:10090400203018467047000008B590F82130DBB25B
:10091400022B03D004238363012008BD02681368FB
:1009240023F00E0313600268136823F001031360BD
:1009340003684C4A93424ED9783A934224D01432F5
:10094400934230D0143293422FD0143293422FD09A
:10095400143293422FD0143293422FD01432934244
:100964002FD002F5627293422ED0143293422DD0CE
:10097400143293422CD01432934202D04FF480327A
:1009840003E04FF4805200E00122374B5A60012308
:1009940080F82130002380F82030436B002B5ED098
:1009A40098470020B9E71022EFE74FF48072ECE794
:1009B4004FF48052E9E74FF48032E6E74FF48012B7
:1009C400E3E74FF08072E0E70122DEE71022DCE784
:1009D4004FF48072D9E7254A934224D014329342CB
:1009E40025D01432934224D01432934224D01432AA
:1009F400934224D01432934224D01432934224D00C
:100A040002F56272934223D01432934222D01432FC
:100A1400934221D01432934202D04FF4803203E047
:100A24004FF4805200E00122114B5A60AFE71022CC
:100A3400FAE74FF48072F7E74FF48052F4E74FF48B
:100A44008032F1E74FF48012EEE74FF08072EBE76B
:100A54000122E9E71022E7E74FF48072E4E700207F
:100A64005BE700BF8000024000040240080002402F
:100A74000000024070B582B00024A446B0E0874D67
:100A8400AA4210D007D9864DAA420CD005F580356C
:100A9400AA4208D013E0A5F58015AA4203D005F5B3
:100AA4007025AA4207D18A68002A62D0012A5BD045
:100AB4004361082403E0A5F58015AA42F3D0BEF1F2
:100AC400FF0F58D80646BEF1FF0F56D84FEA8C02E6
:100AD40033680F25954023EA050304FA02F2134311
:100AE40033604B6813F0805F78D06E4B9A6942F0A4
:100AF40001029A619B6903F001030193019B4FEA90
:100B04009C02951C684B53F825600CF003039D0070
:100B14000F23AB4026EA0306644B984233D003F517
:100B24008063984200F0988003F58063984200F057
:100B3400958003F58063984200F0928003F580630A
:100B4400984200F08F8003F58063984219D0062301
:100B54001AE0CC68B3E7CC680434B0E7CC68083456
:100B6400ADE7CC680C34AAE703610824A7E70024A6
:100B7400A5E70424A3E7061DA5E7ACF1080292004B
:100B8400A6E7052300E00023AB4033430232464D81
:100B940045F822304B6813F4801F65D0444A9368AB
:100BA40043EA0E0393604B6813F4001F62D0404A7B
:100BB400D36843EA0E03D3604B6813F4003F5FD05D
:100BC4003B4A536843EA0E0353604B6813F4803F77
:100BD4005CD0374A136843EA0E0313600CF1010C2E
:100BE4000A6832FA0CF357D0012303FA0CF302EA31
:100BF400030E33EA0202F1D14A68122A3FF63FAFEC
:100C0400122A3FF65CAF01A555F822F0AB0A0008A2
:100C1400570B0008610B0008730B0008C30A000897
:100C2400C30A0008C30A0008C30A0008C30A00086C
:100C3400C30A0008C30A0008C30A0008C30A00085C
:100C4400C30A0008C30A0008C30A0008C30A00084C
:100C54005B0B0008670B0008012395E7022393E769
:100C6400032391E704238FE7114A936823EA0E03D1
:100C7400936098E70E4AD36823EA0E03D3609BE798
:100C84000B4A536823EA0E0353609EE7084A13682D
:100C940023EA0E031360A1E702B070BD0000221026
:100CA4000000311000100240000001400008014023
:100CB4000004014003685A6912F4806F01D10020D6
:100CC40070476FF480625A6100230363202280F826
:100CD4003D2080F83E30026C42F00402026480F849
:100CE4003C30012070472DE9F04106460C4617467A
:100CF40098463BE0FFF75EFD069BC01A404502D8CC
:100D0400B8F1000F32D1012D18D033689B6924EA61
:100D140003039BB2B3FA83F35B099F4226D10023FA
:100D24003363202286F83D2086F83E30326C42F050
:100D34002002326486F83C30012027E033685B6986
:100D440024EA03039BB2B3FA83F35B09E5E7336850
:100D54005B6924EA030C1FFA8CFCBCFA8CFC4FEA96
:100D64005C1C674511D1B8F1FF3FC3D1C4F30745FB
:100D7400012DECD033689B6924EA030C1FFA8CFC28
:100D8400BCFA8CFC4FEA5C1CEBE70020BDE8F08168
:100D94002DE9F84305460E469046994653E01A68F5
:100DA40042F400721A602B686FF480625A61002367
:100DB4002B63202285F83D2085F83E302A6C42F0D2
:100DC40004022A6485F83C3001204AE0FFF7F2FC73
:100DD400A0EB0900404502D8B8F1000F33D1012F30
:100DE40017D02B689B6926EA03039BB2003B18BF0C
:100DF400012343B300232B63202285F83D2085F88B
:100E04003E302A6C42F020022A6485F83C300120EE
:100E140027E02B685B6926EA03039BB2003B18BFFB
:100E24000123E6E72B689C6926EA0404A4B2003C8B
:100E340018BF0124A4B12B685A6912F4806FAED193
:100E4400B8F1FF3FC2D1C6F30747012FEAD12B689F
:100E54005C6926EA0404A4B2003C18BF0124E9E753
:100E64000020BDE8F88370B504460D461646236895
:100E74005B6913F0800F21D12046FFF71BFFF8B9FF
:100E8400B5F1FF3FF3D0FFF795FC801BA84201D8D2
:100E9400002DECD123685B6913F0800FE7D10023A8
:100EA4002363202284F83D2084F83E30226C42F0F3
:100EB4002002226484F83C30012000E0002070BD50
:100EC4000120FCE72DE9F04385B004460D46914628
:100ED4001F46DDF830800D9E0368196841F4807167
:100EE40019600096434600224FF00111FFF7FBFE04
:100EF40060B9236805F0FE051D6133464246264964
:100F04002046FFF745FF68B1012008E023681B680D
:100F140013F4807F02D04FF400732364032005B0E0
:100F2400BDE8F0830023039323685A6903929B6905
:100F34000393039B324641462046FFF794FF30B9A2
:100F4400012F0FD123685FFA89F61E61E7E7236C4E
:100F5400042B01D00120E2E72268136843F40073F4
:100F64001360F7E723684FEA19221A6132464146B3
:100F74002046FFF778FF20B923685FFA89F61E61DF
:100F8400CDE7236C042B01D00120C8E72268136845
:100F940043F400731360F7E7020001002DE9F04702
:100FA40084B004460D46164699460C9FDDF83480FD
:100FB4000268136843F4806313600368196841F49A
:100FC40080711960CDF800803B4600224FF001117A
:100FD400FFF789FE70B95FFA85FA236805F0FE050C
:100FE4001D6143463A4641492046FFF7D1FE68B1A8
:100FF400012008E023681B6813F4807F02D04FF4BB
:1010040000732364032004B0BDE8F0870023039336
:1010140023685A6903929B690393039B42463946AA
:101024002046FFF720FF80B9B9F1010F18D12368DA
:10103400F6B21E61424639462046FFF714FF68B3F4
:10104400236C042B24D00120DDE7236C042B01D076
:101054000120D8E72268136843F400731360F7E7AC
:101064002368320A1A61424639462046FFF7FBFEDE
:1010740018B92368F6B21E61DCE7236C042B01D097
:101084000120C0E72268136843F400731360F7E794
:101094002268136843F400731360D4E7226813686A
:1010A40043F480731360CDF800803B4600224FF078
:1010B40001112046FFF717FE68B922684AF00103C0
:1010C400136143463A4609492046FFF761FE00286A
:1010D40099D0012097E723681B6813F4807F02D01E
:1010E4004FF40073236403208DE700BF0200010066
:1010F40070B504460D46164623685B6913F0040F69
:1011040021D12046FFF7D6FDF8B9B5F1FF3FF3D062
:10111400FFF750FB801BA84201D8002DECD12368B7
:101124005B6913F0040FE7D100232363202284F8C2
:101134003D2084F83E30226C42F02002226484F880
:101144003C30012000E0002070BD0120FCE770B5B8
:1011540004460D46164614E06FF010025A6100234F
:101164002363202284F83D2084F83E30226C2264DC
:1011740084F83C30012025E023685B6913F0400FBC
:1011840010D02368586910F0400F1AD1586910F034
:10119400100FE1D1FFF70EFB801BA842ECD8002D05
:1011A400EFD1E9E700232363202284F83D2084F86B
:1011B4003E30226C42F02002226484F83C3001204C
:1011C40000E0002070BD0000002800F0CC8070B565
:1011D400044690F83D30002B77D0242384F83D302A
:1011E4002268136823F0010313602268136843F430
:1011F400004313602268136823F40043136000F073
:1012040025FE62685A4B9A4264D85A4B98428CBF66
:1012140000230123002B40F0A8805749A1FB003193
:101224008B0C25686A6822F03F0242EA91426A60A8
:1012340021680A6A22F03F0266684D4DAE424FD8DB
:10124400013313430B622168CA6922F44F4222F02E
:10125400FF026668464B9E424CD8431E7600B3FBA1
:10126400F6F3013340F6FC70034278D0C3F30B036A
:101274001343CB6121680B6823F0C003E269206A41
:10128400024313430B6021688B6823F4034323F068
:10129400FF032269E068024313438B602168CB6833
:1012A40023F0FF036269A06902431343CB60226801
:1012B400136843F00103136000202064202384F8A2
:1012C4003D30206384F83E0070BD80F83C30FFF769
:1012D40023F882E7294B98428CBF0023012399E726
:1012E4004FF4967505FB03F3254DA5FB03539B09AA
:1012F4000133A6E7A368BBB9451E06EB460CB5FB54
:10130400FCF50135C5F30B05B5FA85F56D0945BB4B
:10131400C3B9013806EB4603B0FBF3F30133C3F35F
:101324000B0343F40043A3E7451E06EB860C0CEBCA
:101334008C0CB5FBFCF50135C5F30B05B5FA85F549
:101344006D09E4E7013806EB860303EB8303B0FB86
:10135400F3F30133C3F30B0343F4404388E704235B
:1013640086E7012384E7012070470120ACE700BF32
:10137400A08601007F841E0083DE1B43FF083D001E
:10138400D34D62102DE9F04383B004460F469046D6
:1013940099460C9EFFF70EFA054694F83D00C0B23C
:1013A400202803D0022003B0BDE8F0830095192360
:1013B40001224B492046FFF796FC002840F0898023
:1013C40094F83C30012B00F08680012384F83C30F3
:1013D40023681A6812F0010F03D11A6842F001025F
:1013E4001A602268136823F400631360212384F8CD
:1013F4003D30402384F83E30002323640A9B63621B
:10140400BDF82C306385638D2385364BE3620195EB
:1014140000964B46424639462046FFF753FD0028C6
:101424005BD1238D002B35D02A4631462046FFF769
:101434001AFD20BB626A236812781A61626A531C1F
:101444006362218D013989B22185638D9BB2013B91
:101454009BB263852368586910F0040FE1D000291A
:10146400DFD052781A61636A01336362238D013BD2
:101474002385638D9BB2013B9BB26385D1E7236CCB
:10148400042B01D001208EE72268136843F4007313
:101494001360F7E72A4631462046FFF729FE50B18C
:1014A400236C042B01D001207DE72268136843F4E8
:1014B40000731360F7E72268136843F40073136042
:1014C400202384F83D30002384F83E3084F83C30F7
:1014D40069E7022067E7022065E7012063E700BFB0
:1014E400020010000000FFFF2DE9F04389B004461C
:1014F4000F4690469946129E00230793FFF75AF928
:10150400054694F83D00C0B2202804D0022738468E
:1015140009B0BDE8F08300951923012281492046D2
:10152400FFF7E1FB002840F07C8194F83C30012B6C
:1015340000F07981012384F83C3023681A6812F0A2
:10154400010F03D11A6842F001021A60226813687D
:1015540023F400631360222384F83D30402384F88D
:101564003E3000232364109B6362BDF844306385DE
:10157400638D23856C4BE362019500964B4642468E
:1015840039462046FFF70AFD0746002840F04D8102
:10159400238D5BB9039323685A6903929A69039272
:1015A400039A1A6842F400721A60F2E0012B0FD019
:1015B400022B21D02268136843F480631360002354
:1015C400069323685A6906929B690693069BE0E09A
:1015D4002268136823F48063136072B600230493B3
:1015E40023685A6904929A690492049A1A6842F424
:1015F40000721A6062B6CCE02268136843F4006398
:10160400136072B60023059323685A6905929A6998
:101614000592059A1A6822F480621A6062B6B8E0EC
:101624002A4631462046FFF792FD002840F0FF800D
:1016340023681A69636A1A70636A01336362238DCB
:10164400013B2385638D9BB2013B9BB26385A0E084
:1016540000953346002235492046FFF744FB002815
:1016640040F0E9802268136823F48063136072B643
:1016740023681A69636A1A70636A01336362238D8B
:10168400013B2385638D9BB2013B9BB26385284B51
:101694001B68DB08274AA2FB03231B0A03EB830313
:1016A400C3EBC3030793079B013B0793079B002BE3
:1016B40028D023685A6912F0040FF4D01A6842F44F
:1016C40000721A6023681A69636A1A70636A0133C4
:1016D4006362238D013B2385638D9BB2013B9BB2E7
:1016E400638562B623681A69636A1A70636A013390
:1016F4006362238D013B2385638D9BB2013B9BB2C7
:10170400638546E02363202284F83D2084F83E303C
:10171400226C42F02002226462B684F83C30012735
:10172400F5E600BF020010000000FFFF0400010006
:101734000000002089B5F8142A4631462046FFF7F8
:1017440006FD002879D123681A69636A1A70636AEE
:1017540001336362228D013A92B22285638D9BB27A
:10176400013B9BB263852368596911F0040F10D0C3
:10177400032A48D023681A69636A1A70636A0133BA
:101784006362238D013B2385638D9BB2013B9BB236
:101794006385238D002B3BD0032BCDD8012B3FF445
:1017A4003FAF022B7FF454AF009533460022244907
:1017B4002046FFF798FA00283BD172B622681368D6
:1017C40043F40073136023681A69636A1A70636AC6
:1017D40001336362238D013B2385638D9BB2013BFF
:1017E4009BB2638562B623681A69636A1A70636A76
:1017F40001336362238D013B2385638D9BB2013BDF
:101804009BB26385C5E71A6822F480621A60B1E767
:10181400202384F83D30002384F83E3084F83C30A3
:1018240075E6022773E6022771E601276FE60127B2
:101834006DE601276BE6012769E6012767E600BF2D
:101844000400010082B0084B1B68084AA2FB032372
:101854005B0A00FB03F3019300BF019B5A1E019234
:10186400002BF9D102B0704700000020D34D621064
:10187400002800F0F18170B582B00446036813F0CB
:10188400010F2CD0994B5B6803F00C03042B1DD083
:10189400964B5B6803F00C03082B12D06368B3F516
:1018A400803F41D0002B55D103F1804303F504332D
:1018B4001A6822F480321A601A6822F480221A60AC
:1018C40037E08A4B5B6813F4803FE7D0874B1B6893
:1018D40013F4003F03D06368002B00F0BF8123683A
:1018E40013F0020F75D0814B5B6813F00C0F5FD0BF
:1018F4007E4B5B6803F00C03082B54D02369002B48
:1019040000F08A807A4B01221A60FEF753FF0546E5
:10191400764B1B6813F0020F75D1FEF74BFF401B8B
:101924000228F5D903209EE1704A136843F48033FA
:101934001360636843B3FEF73DFF05466B4B1B68BA
:1019440013F4003FCBD1FEF735FF401B6428F5D9D3
:10195400032088E1B3F5A02F09D0644B1A6822F460
:1019640080321A601A6822F480221A60E1E703F1D7
:101974008043A3F53C331A6842F480221A601A6843
:1019840042F480321A60D4E7FEF714FF0546574B41
:101994001B6813F4003FA2D0FEF70CFF401B642821
:1019A400F5D903205FE1514B5B6813F4803FA5D167
:1019B4004E4B1B6813F0020F03D02369012B40F038
:1019C4004F814A4A136823F0F803616943EAC1036B
:1019D4001360236813F0080F33D0A369002B5CD085
:1019E400434B0122C3F88024FEF7E4FE05463F4B37
:1019F4005B6A13F0020F21D1FEF7DCFE401B0228C4
:101A0400F5D903202FE1394A136823F0F8036169FB
:101A140043EAC1031360DCE7354B00221A60FEF78A
:101A2400C9FE0546314B1B6813F0020FD1D0FEF7F7
:101A3400C1FE401B0228F5D9032014E10120FFF761
:101A440001FF236813F0040F00F09680274BDB6935
:101A540013F0805F34D1254BDA6942F08052DA61A9
:101A6400DB6903F080530193019B0125214B1B6823
:101A740013F4807F26D0E368012B3DD0002B53D193
:101A840003F1804303F504331A6A22F001021A6257
:101A94001A6A22F004021A6233E0154B0022C3F8DA
:101AA4008024FEF787FE0546104B5B6A13F0020F95
:101AB400C7D0FEF77FFE401B0228F5D90320D2E0F1
:101AC4000025D3E70B4A136843F480731360FEF7D1
:101AD40071FE0646074B1B6813F4807FCBD1FEF7DB
:101AE40069FE801B6428F5D90320BCE00010024085
:101AF40000004242007000405F4A136A43F0010351
:101B04001362E36833B3FEF755FE06465A4B1B6A6D
:101B140013F0020F2FD1FEF74DFE801B41F28833E4
:101B24009842F3D903209EE0052B09D0524B1A6A40
:101B340022F001021A621A6A22F004021A62E0E731
:101B44004D4B1A6A42F004021A621A6A42F0010208
:101B54001A62D6E7FEF72EFE0646474B1B6A13F0C1
:101B6400020F08D0FEF726FE801B41F2883398420C
:101B7400F3D9032077E0E5B9E369002B72D03E4A3C
:101B8400526802F00C02082A56D0022B17D03B4BA5
:101B940000221A66FEF70EFE0446374B1B6813F04C
:101BA400007F47D0FEF706FE001B0228F5D903206C
:101BB40059E0314AD36923F08053D361DCE72F4BDA
:101BC40000221A66FEF7F6FD05462B4B1B6813F040
:101BD400007F06D0FEF7EEFD401B0228F5D9032056
:101BE40041E0236AB3F5803F1AD023494B6823F4BC
:101BF4007413226A606A024313434B601F4B012231
:101C04001A66FEF7D7FD04461B4B1B6813F0007FD2
:101C14000ED1FEF7CFFD001B0228F5D9032022E0E8
:101C2400154A536823F40033A1680B435360DCE77F
:101C3400002018E0002016E0012B16D00E4B5B6844
:101C440003F48031226A914211D103F47013626A61
:101C540093420ED1002006E001207047012002E0EB
:101C6400012000E0002002B070BD0120FBE701204C
:101C7400F9E70120F7E700BF0010024000004242EC
:101C84000F4B5B6803F00C02082A01D00D48704723
:101C9400C3F383420C49885C13F4803F0BD0084B98
:101CA4005B68C3F34043094AD35C064A02FB00F075
:101CB400B0FBF3F07047064B03FB00F0704700BF26
:101CC4000010024000127A00083500081835000898
:101CD40000093D00002800F0A08070B50D460446C0
:101CE400524B1B6803F007038B420BD24F4A136815
:101CF40023F007030B431360136803F007038B42BD
:101D040040F08D80236813F0020F17D013F0040FF6
:101D140004D0474A536843F4E0635360236813F0E4
:101D2400080F04D0424A536843F460535360404A56
:101D3400536823F0F003A1680B435360236813F046
:101D4400010F31D06368012B20D0022B25D0384AF3
:101D5400126812F0020F64D035494A6822F0030277
:101D640013434B60FEF726FD0646314B5B6803F0D8
:101D74000C036268B3EB820F16D0FEF71BFD801BC9
:101D840041F288339842F0D9032045E0284A12688A
:101D940012F4003FE0D101203EE0254A126812F01F
:101DA400007FD9D1012037E0204B1B6803F00703E3
:101DB400AB420AD91D4A136823F007032B4313606F
:101DC400136803F00703AB422DD1236813F0040F0B
:101DD40006D0174A536823F4E063E1680B43536069
:101DE400236813F0080F07D0114A536823F4605393
:101DF400216943EAC1035360FFF742FF0C4B5B6860
:101E0400C3F303130B4AD35CD8400B4B18600B4B42
:101E14001868FEF78BFC002070BD0120704701207C
:101E2400FAE70120F8E70120F6E700BF00200240AE
:101E340000100240F03400080000002008000020D8
:101E4400014B1868704700BF0000002008B5FFF779
:101E5400F7FF044B5B68C3F30223034AD35CD84007
:101E640008BD00BF001002400035000808B5FFF7A8
:101E7400E7FF044B5B68C3F3C223034AD35CD84037
:101E840008BD00BF0010024000350008026802F1DE
:101E94000C0353E8003F23F490730C3242E8003102
:101EA4000029F3D1026802F1140353E8003F23F040
:101EB4000103143242E800310029F3D1036B012BF2
:101EC40005D0202380F84230002303637047026862
:101ED40002F10C0353E8003F23F010030C3242E8F4
:101EE40000310029F3D1ECE790F84130DBB2212B2B
:101EF40001D0022070478368B3F5805F17D0036A6E
:101F04005A1C02621A7803685A60C38C9BB2013B64
:101F14009BB2C3844BB90268D36823F08003D360B7
:101F24000268D36843F04003D3600020704703691C
:101F3400002BE4D1036A1B880268C3F308035360CF
:101F4400036A02330362E0E710B5044602681369CA
:101F540023F44053C1680B4313618368026913433C
:101F640042691A430168CB6823F4B05323F00C038D
:101F74001343CB600268536923F4407381690B43B4
:101F840053610268134B9A4220D0FFF75FFF024669
:101F940002EB820202EB820263689B00B2FBF3F263
:101FA4000D48A0FB02314909642303FB11231B01E3
:101FB4003233A0FB03235B0903F0F00202EB0112AE
:101FC40003F00F03216813448B6010BDFFF74EFF2D
:101FD4000246DDE7003801401F85EB512DE9F0434F
:101FE40083B005460E4617469946DDF828802C68CE
:101FF400246836EA04030CBF4FF0010C4FF0000CC8
:10200400BC4528D1B8F1FF3FF1D0FEF7D3FBA0EBDC
:102014000900404523D8B8F1000F22D02B68DA68B4
:1020240012F0040FE3D0802EE1D0402EDFD01A68E6
:1020340012F0080FDBD0002401941A6801925B6847
:102044000193019B2846FFF721FF08236B6485F861
:102054004040012000E0002003B0BDE8F0830320ED
:10206400FAE70320F8E760B310B5044690F841306E
:1020740013B3242384F841302268D36823F4005333
:10208400D3602046FFF760FF2268136923F490436E
:1020940013612268536923F02A0353612268D368C9
:1020A40043F40053D36000206064202384F841305B
:1020B40084F84230606310BD80F84030FEF7CCFAFB
:1020C400D7E7012070472DE9F04182B01E4690F811
:1020D4004130DBB2202B56D104460D4690460029F0
:1020E40055D00AB901204FE000234364212380F82E
:1020F4004130FEF75FFB0746A4F82480A4F826804D
:10210400A368B3F5805F02D04FF0000814E02369A0
:102114002BB34FF000080FE0202384F84130032054
:1021240032E038F8023B2268C3F308035360E28CC0
:1021340092B2013A92B2E284E38C9BB293B10096DC
:102144003B46002280212046FFF748FF0028E3D1C8
:10215400002DE6D015F8012B23685A60E7E7A8465E
:102164000025E9E700963B46002240212046FFF780
:1021740035FF18B9202384F8413005E0202384F882
:102184004130032000E0022002B0BDE8F0810120CC
:10219400FAE7704708B50168CA6822F04002CA60CD
:1021A400202280F84120FFF7F4FF002008BD70478B
:1021B400704708B5406A0023C385C384FFF7F8FF5E
:1021C40008BD90F84230DBB2222B69D18368B3F5A5
:1021D400805F4FD0826AB3F5805F04D0002B56D164
:1021E4000369002B53D103685B681370836A01335E
:1021F4008362C38D9BB2013B9BB2C385002B51D13B
:1022040000B583B00268D36823F02003D36002686A
:10221400D36823F48073D3600268536923F0010305
:102224005361202380F8423000234363036B012B66
:1022340033D100230363026802F10C0353E8003F27
:1022440023F010030C3242E800310029F3D1036873
:102254001A6812F0100F06D0002201921A68019237
:102264005B680193019B818DFEF782F9002003B026
:102274005DF804FB0269002AACD1826A03685B68DA
:10228400C3F308031380836A02338362B1E70368EC
:102294005B6803F07F031370A8E7FFF788FFE5E7A7
:1022A400022070470020704730B583B004460268AE
:1022B4001368D068516913F00F0505D113F0200F8E
:1022C40002D010F0200F19D12DB111F0010119D154
:1022D40010F4907F16D1216B01297DD013F0800F6B
:1022E40003D010F0800F40F0188113F0400F03D09A
:1022F40010F0400F40F0158103B030BD2046FFF7C9
:1023040060FFF9E713F0010F06D010F4807F03D0CB
:10231400626C42F00102626413F0040F04D019B13C
:10232400626C42F00202626413F0020F04D019B12D
:10233400626C42F00402626413F0080F07D010F0DC
:10234400200F00D119B1626C42F008026264626C21
:10235400002AD1D013F0200F02D010F0200F29D181
:1023640023685B6903F04003626C12F0080F00D12C
:1023740063B32046FFF78AFD23685B6913F0400FBF
:1023840020D0226802F1140353E8003F23F04003F5
:10239400143242E800310029F3D1E36B73B1634A8C
:1023A4005A63E06BFEF7B0FA0028A5D0E06B436BEC
:1023B4009847A1E72046FFF704FFD1E72046FFF73F
:1023C400F7FE99E72046FFF7F3FE95E72046FFF76F
:1023D400EFFE002363648FE713F0100F3FF47EAF2A
:1023E40010F0100F3FF47AAF0023019313680193A8
:1023F40053680193019B536913F0400F51D0E26B72
:1024040013685B689BB2002B3FF476AFA18D9942B1
:102414007FF672AFE3859369202B37D0226802F1EF
:102424000C0353E8003F23F480730C3242E800317C
:102434000029F3D1226802F1140353E8003F23F08A
:102444000103143242E800310029F3D1226802F179
:10245400140353E8003F23F04003143242E80031F0
:102464000029F3D1202384F8423000232363226817
:1024740002F10C0353E8003F23F010030C3242E84E
:1024840000310029F3D1E06BFEF71AFA02236363EB
:10249400A18DE38D9BB2C91A89B22046FEF768F874
:1024A4002AE7A18DE38D9BB2C91A89B2E38D9BB251
:1024B400002B3FF421AF00293FF41EAF226802F144
:1024C4000C0353E8003F23F490730C3242E80030CD
:1024D4000028F3D1226802F1140353E8003F23F0EB
:1024E4000103143242E800300028F3D1202384F899
:1024F400423000232363226802F10C0353E8003FB7
:1025040023F010030C3242E800300028F3D10223F8
:1025140063632046FEF72CF8EEE62046FFF7E4FC62
:10252400EAE62046FFF736FEE6E600BFB7210008DC
:10253400014B1868704700BF0C00002070B50026DE
:102544000C4D0D4C641BA410A64209D100F0B6FF3B
:1025540000260A4D0A4C641BA410A64205D170BD86
:1025640055F8043B98470136EEE755F8043B984785
:102574000136F2E700000000000000000000000047
:102584000000000003460244934200D1704703F860
:10259400011BF9E70FB40A4B13B51C6824B1A369F6
:1025A40013B9204600F066F805AB2046049AA168EA
:1025B400019300F0BBF902B0BDE8104004B07047CD
:1025C4000C000020002310B50446C0E90033C0E924
:1025D4000433836081814366C28183611946082282
:1025E4005C30FFF7CFFF054B24626362044BA362A8
:1025F400044BE362044B236310BD00BFDD2E0008CF
:10260400FF2E0008372F00085B2F0008014900F057
:10261400AFB800BF2D320008682270B54D1E554377
:102624000E4605F1740100F0E5F8044640B10021BE
:10263400C0E900160C30A06005F16802FFF7A2FFA4
:10264400204670BD014800F0B3B800BF1901002056
:10265400014800F0AEB800BF19010020014800F0A5
:10266400A7B800BF1A010020014800F0A2B800BFBB
:102674001A01002010B50446FFF7F0FFA3691BB14F
:10268400BDE81040FFF7F0BFC4E912332365134BD4
:10269400134A1B68A262A34208BF0123204608BF55
:1026A400A36100F01FF86060204600F01BF8A060F2
:1026B400204600F017F800220421E0606068FFF76C
:1026C40081FF01220921A068FFF77CFF0222122169
:1026D400E068FFF777FF0123A361D1E71C35000809
:1026E40011260008F8B50746FFF7ACFF1E4B1E681D
:1026F400B36913B93046FFF7BDFF4836D6E9013454
:10270400013B03D533680BB33668F7E7B4F90C50D3
:10271400D5B9164B04F15800E360656600F047F83C
:10272400FFF796FF08222946C4E90155C4E9045578
:102734002560A56104F15C00FFF724FFC4E90D5591
:10274400C4E912552046F8BD6834D9E70421384657
:10275400FFF762FF044630600028D5D1FFF778FF09
:102764000C233B60EEE700BF1C3500080100FFFFAF
:102774002DE9F84306468846002700F14804D4E9C9
:102784000195B9F1010905D52468002CF7D1384623
:10279400BDE8F883AB89012B07D9B5F90E300133B5
:1027A40003D029463046C04707436835E9E77047F8
:1027B4007047704770B50E4E0C463168054611B926
:1027C40000F07AFB30602146284600F075FB431C7C
:1027D4000AD0C41C24F00304A04207D0211A2846BE
:1027E40000F06AFB013001D14FF0FF34204670BD88
:1027F400200100202DE9F041CD1C25F0030508350A
:102804000C2D38BF0C25002D074601DBA94205D944
:102814000C2300263B603046BDE8F0812E4E00F0CC
:10282400C5FD33681C4634BB29463846FFF7C2FF52
:10283400431C04464DD134682646002E40D12368FB
:102844003146384604EB030800F036FB80453AD1A4
:10285400216803356D1A25F0030508350C2D38BFA2
:102864000C2538462946FFF7A5FF01302BD02368F5
:102874002B4423600EE02268521B1ED40B2A16D967
:102884006119A342256018BF5960636808BF3160AD
:1028940062514B60384604F10B0600F08DFD26F0C2
:1028A4000706231DF21AB6D09B1BA350B3E7626838
:1028B400A3420CBF32605A60ECE723466468B2E777
:1028C40034467668B9E70C2338463B6000F074FD63
:1028D400A1E72560DEE700BF1C010020936810B467
:1028E400013B002B936007DA9469A34201DB0A29B8
:1028F40002D110BC00F034BB1368581C106019706E
:10290400084610BC7047F8B506460F461446D5185D
:10291400AC4201D1002007E03A46304614F8011BCE
:10292400FFF7DCFF431CF3D1F8BD00002DE9F04FA5
:102934000D461446984606469DB018B183690BB9F6
:10294400FFF798FE894B9D421BD175686B6ED907C2
:1029540005D4AB899A0502D4A86DFFF729FFAB898A
:102964001B0701D52B69EBB92946304600F05CFB07
:10297400C0B16B6EDC070ED54FF0FF301DB0BDE863
:10298400F08F7B4B9D4201D1B568DFE7794B9D42C7
:1029940008BFF568DAE7AB899805EDD4A86DFFF7B1
:1029A40008FFE9E70023099320238DF82930302319
:1029B4004FF00109CDF80C80DFF8BC818DF82A3086
:1029C40023469A4613F8012B0AB1252AF9D1BAEB0A
:1029D400040B0BD05B46224629463046FFF793FF93
:1029E400013000F0AA80099A5A4409929AF80030FA
:1029F400002B00F0A28000234FF0FF32CDE9052325
:102A04000AF1010A049307938DF853301A9354463C
:102A1400052214F8011B584800F0BAFC049AD8B9EE
:102A2400D10644BF20238DF85330130744BF2B2312
:102A34008DF853309AF800302A2B15D054460020D4
:102A44004FF00A0C079A214611F8013B303B092B41
:102A54004ED9B0B1079214E0A0EB080309FA03F3CE
:102A64001343A2460493D2E7039B191D1B680391E9
:102A7400002BBBBF5B4242F0020207930793B8BF2F
:102A8400049223782E2B0CD163782A2B35D1039B07
:102A940002341A1D1B680392002BB8BF4FF0FF339A
:102AA4000593DFF8D8A003225046217800F070FC8B
:102AB40040B14023A0EB0A0003FA00F0049B013468
:102AC4000343049314F8011B06222D488DF82810A3
:102AD40000F05EFC00283FD02A4B1BBB039B07334E
:102AE40023F0070308330393099B3B44099367E7E7
:102AF4000C4601200CFB0232A5E700234FF00A0C20
:102B0400194601340593204610F8012B303A092A5E
:102B140003D9002BC5D00591C3E7044601230CFB60
:102B24000121F0E703AB00932A463046164B04A973
:102B3400AFF300800746781CD6D16B6ED90705D455
:102B4400AB899A0502D4A86DFFF733FEAB895B0607
:102B54003FF512AF099811E703AB00932A463046BC
:102B6400094B04A900F082F8E4E700BF40350008EF
:102B740060350008203500088035000886350008D7
:102B84008A350008000000000B2900082DE9F047F1
:102B9400164699468A680B6907469342B8BF13469E
:102BA400336091F843200C46DDF820800AB10133EC
:102BB40033602368990642BF336802333360256863
:102BC40015F0060506D104F1190AE36832689B1A68
:102BD400AB4228DC94F84320131E226818BF01235B
:102BE40092062DD44946384604F14302C0470130C9
:102BF40020D02368E56803F00603042B18BF0025E2
:102C040032684FF00006A36808BFAD1A226908BFF6
:102C140025EAE5759342C4BF9B1AED181A34B542F0
:102C24001AD1002008E00123524649463846C047DD
:102C3400013003D14FF0FF30BDE8F0870135C4E720
:102C44003020E11881F843005A1C94F845102244BE
:102C5400023382F84310C5E7012322464946384629
:102C6400C0470130E6D00136D9E700002DE9FF471F
:102C74000F7E9146782F80460C469A460C9D01F1B2
:102C8400430207D8622F0AD8002F00F0D980582FAA
:102C940000F0A48004F1420584F842703AE0A7F100
:102CA4006303152BF6D801A151F823F0092D000870
:102CB4001D2D0008992C0008992C0008992C000857
:102CC400992C00081D2D0008992C0008992C000847
:102CD400992C0008992C00082B2E00084D2D000873
:102CE4000D2E0008992C0008992C00084D2E000880
:102CF400992C00084D2D0008992C0008992C0008E7
:102D0400152E00082B681A1D1B682A6004F1420561
:102D140084F842300123A4E020682968060601F102
:102D240004030AD50E682B60002E03DA2D237642A5
:102D340084F843300A235E4819E00E6810F0400F0F
:102D44002B6018BF36B2EFE72B682068191D296085
:102D5400010601D51E6802E04606FBD51E886F2FCA
:102D64000CBF08230A235248002184F843106568E5
:102D7400002DA8BF2168A560A4BF21F00401216033
:102D84000EB9002D4DD01546B6FBF3F103FB1167C8
:102D9400C75D05F8017D3746BB420E46F4D9082BC2
:102DA4000BD12368DE0708D5236961689942DEBF29
:102DB400302305F8013C05F1FF35521B22614B46D7
:102DC40021464046CDF800A003AAFFF7DFFE0130FC
:102DD4004CD14FF0FF3004B0BDE8F087344881F89F
:102DE40045702968236851F8046B29601D0614D5C1
:102DF400DF0744BF43F0200323601EB9236823F098
:102E0400200323601023AFE7236843F020032360EB
:102E14007823284884F84530E3E7590648BFB6B21A
:102E2400E6E71546BBE72B682668181D616928602C
:102E340035061B6801D5196002E07006FBD51980C0
:102E4400002315462361BAE72B6800211A1D2A6066
:102E54001D686268284600F09BFA08B1401B606058
:102E640063682361002384F84330A8E72A4649466F
:102E740040462369D0470130ABD023689B0713D465
:102E8400E068039B9842B8BF1846A4E70123324682
:102E940049464046D04701309BD00135E368039949
:102EA4005B1AAB42F2DCEBE7002504F11906F5E707
:102EB40091350008A235000838B50023054D0446B5
:102EC40008462B60FDF788FB431C02D12B6803B135
:102ED400236038BD2401002010B50C46B1F90E1052
:102EE40000F0B8FA0028ABBF636DA3891B1823F464
:102EF4008053ACBF6365A38110BD2DE9F0411F462B
:102F04008B890546DB050C46164605D502230022AF
:102F1400B1F90E1000F0C4F9A389324623F48053AA
:102F2400A38128463B46B4F90E10BDE8F04100F0F9
:102F340069B810B50C46B1F90E1000F0B1F9431C94
:102F4400A38915BF606523F4805343F48053A381A0
:102F540018BFA38110BDB1F90E1000F0D3B8000062
:102F6400F8B50E461446054618B183690BB9FFF748
:102F740081FB214B9C422BD16C68A369A360A3897C
:102F84001A072FD523696BB323692068F6B2C01AD8
:102F940063693746834204DC2146284600F044F93D
:102FA40030BBA3680130013BA36023685A1C226034
:102FB4001E706369834204D0A389DB0706D50A2EF9
:102FC40004D12146284600F02FF988B93846F8BDC7
:102FD4000A4B9C4201D1AC68CFE7094B9C4208BF25
:102FE400EC68CAE72146284600F01EF80028CBD03A
:102FF4004FF0FF37EAE700BF4035000860350008AE
:103004002035000838B50446084611460022054D0F
:103014002A601A46FDF7C6FA431C02D12B6803B195
:10302400236038BD24010020324B70B51D6806466C
:103034000C4625B1AB6913B92846FFF71BFB2E4B91
:103044009C420FD16C68A389B4F90C2019072CD4C5
:10305400DD0611D40923336042F040034FF0FF3002
:10306400A3813EE0254B9C4201D1AC68EBE7244BA5
:103074009C4208BFEC68E6E7580712D5616B41B182
:1030840004F14403994202D0304600F09BF9002336
:103094006363A38923F02403A3810023636023696A
:1030A4002360A38943F00803A38123694BB9A3894F
:1030B40003F42073B3F5007F03D02146304600F0BB
:1030C40027F9A089B4F90C2010F001030AD00023D9
:1030D400A36063695B42A361236943B910F0800074
:1030E400BAD170BD810758BF6369A360F4E70020BB
:1030F400F7E700BF0C0000204035000860350008E9
:103104002035000838B50023054D044608462B60D9
:10311400FDF756FA431C02D12B6803B1236038BD76
:10312400240100208A89F8B5054610070C4657D4B7
:103134004B68002B04DC0B6C002B01DC0020F8BD79
:10314400E66A002EFAD0002312F480522F682B6016
:1031540032D0606DA3895A0705D56368C01A636BC2
:103164000BB1236CC01A00230246E66A2846216A82
:10317400B047431CA38906D129681D292CD8294AA4
:10318400CA40D60728D5002262602269D904226089
:1031940004D5421C01D12B6803B96065616B2F60B3
:1031A4000029CBD004F14403994202D0284600F010
:1031B40009F900206063C2E7216A01232846B04769
:1031C400411CC7D12B68002BC4D01D2B01D0162B5A
:1031D40001D12F60B2E7A38943F04003A381AEE796
:1031E4000F69002FAAD0930718BF00230E6808BFE9
:1031F4004B69F61B0F608B60002E9FDD33463A4609
:103204002846216AD4F828C0E047002806DCA389B0
:103214004FF0FF3043F04003A38190E70744361A90
:10322400EAE700BF0100402038B50B6905460C46AB
:1032340013B90025284638BD18B183690BB9FFF7C7
:1032440019FA144B9C421BD16C68B4F90C30002B56
:10325400EFD0626ED00704D4990502D4A06DFFF7B5
:10326400A7FA28462146FFF75DFF636E0546DA0795
:10327400E0D4A3899B05DDD4A06DFFF79AFAD9E7C2
:10328400054B9C4201D1AC68DFE7044B9C4208BF6C
:10329400EC68DAE74035000860350008203500089E
:1032A40038B50446084611460022054D2A601A46E0
:1032B400FDF790F9431C02D12B6803B1236038BD9C
:1032C4002401002070B50E46B1F90E1014460029F1
:1032D4001D4696B008DA0022B6F90C302A601A06A8
:1032E40010D44FF480630EE06A4600F0C5F800285D
:1032F400F1DB019A02F47042A2F500535A425A419A
:103304002A60EEE740230020236016B070BD000061
:103314008B8973B59D0706460C4607D504F1470310
:10332400236023610123636102B070BD6A4601AB6F
:10333400FFF7C8FF009905463046FFF75BFA48B926
:10334400B4F90C309A05EFD423F0030343F00203DD
:10335400A381E3E70D4BB362A389206043F08003AC
:10336400A381009B20616361019B5BB13046B4F98A
:103374000E1000F093F828B1A38923F0030343F05F
:103384000103A381A0890543A581CDE71126000887
:10339400034610B5C9B202449342184601D1002035
:1033A40003E0047801338C42F6D110BD0148FFF7E5
:1033B400FFB900BF180100200148FFF7FAB900BFA8
:1033C4001801002038B50546002940D051F8043CC6
:1033D4000C1F002BB8BFE418FFF7E8FF1C4A136862
:1033E40033B9636014602846BDE83840FFF7E4BF92
:1033F400A34208D9206821188B4201BF19685B6871
:1034040009182160EDE71A465B680BB1A342FAD9AB
:1034140011685018A0420BD120680144501883420F
:103424001160E0D118685B68014411605360DAE709
:1034340002D90C232B60D6E7206821188B4201BFE8
:1034440019685B680918216063605460CBE738BD74
:103454001C01002038B50446084611460022054DDB
:103464002A601A46FDF78EF8431C02D12B6803B17B
:10347400236038BD2401002038B50023064D0446DE
:10348400084611462B60FDF79EF8431C02D12B68B9
:1034940003B1236038BD00BF2401002038B50023E8
:1034A400054D044608462B60FDF792F8431C02D1F3
:1034B4002B6803B1236038BD24010020F8B500BF98
:1034C400F8BC08BC9E467047F8B500BFF8BC08BC01
:0434D4009E46704759
:1034D80068656C6C6F00000000000000633D2563A8
:1034E8000D0A00000A0000000000000000000000B3
:1034F8000102030406070809000000000102030492
:1035080002030405060708090A0B0C0D0E0F10101C
:103518000102000010000020000000000000000070
:103528000000000000000000000000000000000093
:103538000000000000000000000000000000000083
:103548000000000000000000000000000000000073
:103558000000000000000000000000000000000063
:103568000000000000000000000000000000000053
:103578000000000000000000232D302B2000686CA4
:103588004C0065666745464700303132333435367E
:1035980037383941424344454600303132333435B7
:0C35A800363738396162636465660000E4
:1035B40000127A000100000010000000100000203A
:1035C4000000000040350008603500082035000880
:1035D40000000000000000000000000000000000E7
:1035E40000000000000000000000000000000000D7
:1035F40000000000000000000000000000000000C7
:1036040000000000000000000000000000000000B6
:1036140000000000000000000000000000000000A6
:04000005080006E504
:00000001FF
