:020000040800F2
:1000000000000120D90300081103000813030008B1
:10001000150300081703000819030008000000007A
:100020000000000000000000000000001B030008AA
:100030001D030008000000001F0300082103000842
:1000400021040008210400082104000821040008FC
:1000500021040008210400082104000821040008EC
:1000600021040008210400082104000821040008DC
:1000700021040008210400082104000821040008CC
:1000800021040008210400082104000821040008BC
:1000900021040008210400082104000821040008AC
:1000A000210400082104000821040008210400089C
:1000B000210400082104000821040008210400088C
:1000C000210400082104000821040008210400087C
:1000D000210400082104000821040008210400086C
:1000E000210400082104000821040008210400085C
:1000F000210400082104000821040008210400084C
:10010000210400082104000821040008210400083B
:10011000210400082104000821040008210400082B
:10012000210400082104000821040008210400081B
:1001300000000000000000000000000000000000BF
:1001400000000000000000000000000000000000AF
:10015000000000000000000000000000000000009F
:10016000000000000000000000000000000000008F
:10017000000000000000000000000000000000007F
:10018000000000000000000000000000000000006F
:10019000000000000000000000000000000000005F
:1001A000000000000000000000000000000000004F
:1001B000000000000000000000000000000000003F
:1001C000000000000000000000000000000000002F
:1001D000000000000000000000000000000000001F
:0401E0005FF8E0F1F3
:1001E40082B00A4B9A6942F010029A619A6902F04D
:1001F40010020092009A9A6942F004029A619B6983
:1002040003F004030193019B02B070470010024005
:1002140072B6FEE700B591B02822002106A800F0CE
:10022400CBFF0023019302930393049305930122CC
:1002340006924FF4803307930A9202220D920E9392
:100244004FF4E0130F9306A800F0C8FA80B90F2307
:10025400019302210291002303934FF480620492DC
:10026400059301A800F0ECFC20B911B05DF804FB83
:10027400FFF7CEFFFFF7CCFF08B500F0F7F8FFF764
:10028400C9FFFFF7ADFF00F04FF84FF47A73072270
:100294000A490B4800F09DFE4FF47A730A2209497B
:1002A400074800F0FCFE0028F6D14FF47A730A22C6
:1002B4000449034800F08DFEEEE700BF7812000801
:1002C400700000200C00002082B00E4B9A6942F0AE
:1002D40001029A619A6902F001020092009ADA69B5
:1002E40042F08052DA61DB6903F080530193019B91
:1002F400054A536823F0E06343F00073536002B08F
:10030400704700BF0010024000000140FEE7FEE716
:10031400FEE7FEE7FEE770477047704708B500F058
:10032400B7F808BD7047000008B50A480A4B0360D7
:100334004FF4E133436000238360C36003610C2204
:1003440042618361C36100F014FE00B908BDFFF788
:100354005FFFFBE7700000200038014010B586B055
:10036400002302930393049305930268174B9A4264
:1003740001D006B010BD03F558439A6942F4804297
:100384009A619A6902F480420092009A9A6942F052
:1003940004029A619B6903F004030193019B4FF4E7
:1003A400007302930223039303230593084C02A9C9
:1003B400204600F0DDF84FF480630293002303939A
:1003C400049302A9204600F0D3F8D2E70038014094
:1003D40000080140FFF7A6FF0B480C490C4A002314
:1003E40002E0D458C4500433C4188C42F9D3094AE7
:1003F400094C002301E013600432A242FBD300F055
:10040400B7FEFFF739FF7047000000200C00002002
:10041400AC1200080C000020BC000020FEE7000025
:1004240010B504460E4B18784FF47A73B3FBF0F30F
:100434000C4A1068B0FBF3F000F086F868B90F2C92
:1004440001D901200AE0002221464FF0FF3000F0DC
:1004540043F8054B1C60002000E0012010BD00BFE4
:1004640004000020000000200800002008B5074A0E
:10047400136843F010031360032000F01BF80220FC
:10048400FFF7CEFFFFF720FF002008BD0020024049
:10049400034A1168034B1B780B441360704700BF79
:1004A400B800002004000020014B1868704700BF0A
:1004B400B8000020074AD36823F4E0631B041B0C34
:1004C400000200F4E060034343F0BF6343F40033ED
:1004D400D360704700ED00E000B5194BDB68C3F34F
:1004E4000223C3F1070CBCF1040F28BF4FF0040C26
:1004F40003F1040EBEF1060F18D9033B4FF0FF3E83
:100504000EFA0CFC21EA0C0199400EFA03F322EADC
:100514000303194300280BDB0901C9B200F1604051
:1005240000F5614080F800135DF804FB0023E5E763
:1005340000F00F000901C9B2024B1954F4E700BFDF
:1005440000ED00E014ED00E00138B0F1807F0BD243
:100554004FF0E0235861054AF02182F8231000206F
:10056400986107221A6170470120704700ED00E08E
:1005740070B582B00024A446B0E0874DAA4210D0E2
:1005840007D9864DAA420CD005F58035AA4208D079
:1005940013E0A5F58015AA4203D005F57025AA42FB
:1005A40007D18A68002A62D0012A5BD043610824FB
:1005B40003E0A5F58015AA42F3D0BEF1FF0F58D889
:1005C4000646BEF1FF0F56D84FEA8C0233680F255A
:1005D400954023EA050304FA02F2134333604B689F
:1005E40013F0805F78D06E4B9A6942F001029A61F1
:1005F4009B6903F001030193019B4FEA9C02951C44
:10060400684B53F825600CF003039D000F23AB40A7
:1006140026EA0306644B984233D003F5806398427C
:1006240000F0988003F58063984200F0958003F50C
:100634008063984200F0928003F58063984200F052
:100644008F8003F58063984219D006231AE0CC68A2
:10065400B3E7CC680434B0E7CC680834ADE7CC68C1
:100664000C34AAE703610824A7E70024A5E70424BF
:10067400A3E7061DA5E7ACF108029200A6E705234F
:1006840000E00023AB4033430232464D45F82230AC
:100694004B6813F4801F65D0444A936843EA0E0301
:1006A40093604B6813F4001F62D0404AD36843EA56
:1006B4000E03D3604B6813F4003F5FD03B4A53688A
:1006C40043EA0E0353604B6813F4803F5CD0374A0F
:1006D400136843EA0E0313600CF1010C0A6832FA42
:1006E4000CF357D0012303FA0CF302EA030E33EAA6
:1006F4000202F1D14A68122A3FF63FAF122A3FF6AE
:100704005CAF01A555F822F0A705000853060008C0
:100714005D0600086F060008BF050008BF05000855
:10072400BF050008BF050008BF050008BF05000895
:10073400BF050008BF050008BF050008BF05000885
:10074400BF050008BF050008BF05000857060008DC
:1007540063060008012395E7022393E7032391E747
:1007640004238FE7114A936823EA0E03936098E702
:100774000E4AD36823EA0E03D3609BE70B4A5368FF
:1007840023EA0E0353609EE7084A136823EA0E0324
:100794001360A1E702B070BD000022100000311008
:1007A4000010024000000140000801400004014024
:1007B40082B0084B1B68084AA2FB03235B0A00FBB8
:1007C40003F3019300BF019B5A1E0192002BF9D140
:1007D40002B0704700000020D34D6210002800F0E2
:1007E400F18170B582B00446036813F0010F2CD078
:1007F400994B5B6803F00C03042B1DD0964B5B688C
:1008040003F00C03082B12D06368B3F5803F41D08A
:10081400002B55D103F1804303F504331A6822F405
:1008240080321A601A6822F480221A6037E08A4BF8
:100834005B6813F4803FE7D0874B1B6813F4003FD9
:1008440003D06368002B00F0BF81236813F0020F0C
:1008540075D0814B5B6813F00C0F5FD07E4B5B68E7
:1008640003F00C03082B54D02369002B00F08A807A
:100874007A4B01221A60FFF717FE0546764B1B6878
:1008840013F0020F75D1FFF70FFE401B0228F5D9B4
:1008940003209EE1704A136843F480331360636855
:1008A40043B3FFF701FE05466B4B1B6813F4003F8F
:1008B400CBD1FFF7F9FD401B6428F5D9032088E16B
:1008C400B3F5A02F09D0644B1A6822F480321A6061
:1008D4001A6822F480221A60E1E703F18043A3F549
:1008E4003C331A6842F480221A601A6842F4803257
:1008F4001A60D4E7FFF7D8FD0546574B1B6813F47D
:10090400003FA2D0FFF7D0FD401B6428F5D9032097
:100914005FE1514B5B6813F4803FA5D14E4B1B68DC
:1009240013F0020F03D02369012B40F04F814A4A90
:10093400136823F0F803616943EAC1031360236871
:1009440013F0080F33D0A369002B5CD0434B012272
:10095400C3F88024FFF7A8FD05463F4B5B6A13F0FC
:10096400020F21D1FFF7A0FD401B0228F5D9032077
:100974002FE1394A136823F0F803616943EAC1039C
:100984001360DCE7354B00221A60FFF78DFD054646
:10099400314B1B6813F0020FD1D0FFF785FD401BCC
:1009A4000228F5D9032014E10120FFF701FF236891
:1009B40013F0040F00F09680274BDB6913F0805F7F
:1009C40034D1254BDA6942F08052DA61DB6903F0F5
:1009D40080530193019B0125214B1B6813F4807FF5
:1009E40026D0E368012B3DD0002B53D103F1804383
:1009F40003F504331A6A22F001021A621A6A22F019
:100A040004021A6233E0154B0022C3F88024FFF776
:100A14004BFD0546104B5B6A13F0020FC7D0FFF77E
:100A240043FD401B0228F5D90320D2E00025D3E77B
:100A34000B4A136843F480731360FFF735FD0646D1
:100A4400074B1B6813F4807FCBD1FFF72DFD801B70
:100A54006428F5D90320BCE00010024000004242A3
:100A6400007000405F4A136A43F001031362E368B5
:100A740033B3FFF719FD06465A4B1B6A13F0020FF6
:100A84002FD1FFF711FD801B41F288339842F3D92F
:100A940003209EE0052B09D0524B1A6A22F0010272
:100AA4001A621A6A22F004021A62E0E74D4B1A6ACB
:100AB40042F004021A621A6A42F001021A62D6E78C
:100AC400FFF7F2FC0646474B1B6A13F0020F08D0EF
:100AD400FFF7EAFC801B41F288339842F3D90320E4
:100AE40077E0E5B9E369002B72D03E4A526802F020
:100AF4000C02082A56D0022B17D03B4B00221A6650
:100B0400FFF7D2FC0446374B1B6813F0007F47D035
:100B1400FFF7CAFC001B0228F5D9032059E0314A2B
:100B2400D36923F08053D361DCE72F4B00221A668C
:100B3400FFF7BAFC05462B4B1B6813F0007F06D069
:100B4400FFF7B2FC401B0228F5D9032041E0236AD9
:100B5400B3F5803F1AD023494B6823F47413226AF7
:100B6400606A024313434B601F4B01221A66FFF76E
:100B74009BFC04461B4B1B6813F0007F0ED1FFF750
:100B840093FC001B0228F5D9032022E0154A536880
:100B940023F40033A1680B435360DCE7002018E022
:100BA400002016E0012B16D00E4B5B6803F4803155
:100BB400226A914211D103F47013626A93420ED1F6
:100BC400002006E001207047012002E0012000E03F
:100BD400002002B070BD0120FBE70120F9E70120ED
:100BE400F7E700BF00100240000042420F4B5B6871
:100BF40003F00C02082A01D00D487047C3F3834266
:100C04000C49885C13F4803F0BD0084B5B68C3F33A
:100C14004043094AD35C064A02FB00F0B0FBF3F000
:100C24007047064B03FB00F0704700BF0010024002
:100C340000127A0098120008A812000800093D006A
:100C4400002800F0A08070B50D460446524B1B6886
:100C540003F007038B420BD24F4A136823F00703B8
:100C64000B431360136803F007038B4240F08D803D
:100C7400236813F0020F17D013F0040F04D0474A6F
:100C8400536843F4E0635360236813F0080F04D0FF
:100C9400424A536843F460535360404A536823F014
:100CA400F003A1680B435360236813F0010F31D0A4
:100CB4006368012B20D0022B25D0384A126812F029
:100CC400020F64D035494A6822F0030213434B6093
:100CD400FFF7EAFB0646314B5B6803F00C036268DE
:100CE400B3EB820F16D0FFF7DFFB801B41F2883392
:100CF4009842F0D9032045E0284A126812F4003FD4
:100D0400E0D101203EE0254A126812F0007FD9D1DB
:100D1400012037E0204B1B6803F00703AB420AD9DC
:100D24001D4A136823F007032B431360136803F071
:100D34000703AB422DD1236813F0040F06D0174AE2
:100D4400536823F4E063E1680B435360236813F0B2
:100D5400080F07D0114A536823F46053216943EA0A
:100D6400C1035360FFF742FF0C4B5B68C3F30313EB
:100D74000B4AD35CD8400B4B18600B4B1868FFF739
:100D84004FFB002070BD012070470120FAE70120CD
:100D9400F8E70120F6E700BF0020024000100240FF
:100DA400801200080000002008000020014B186891
:100DB400704700BF0000002008B5FFF7F7FF044BA1
:100DC4005B68C3F30223034AD35CD84008BD00BF69
:100DD400001002409012000808B5FFF7E7FF044B2B
:100DE4005B68C3F3C223034AD35CD84008BD00BF89
:100DF4000010024090120008026802F10C0353E84C
:100E0400003F23F490730C3242E800310029F3D1FF
:100E1400026802F1140353E8003F23F00103143283
:100E240042E800310029F3D1036B012B05D02023C4
:100E340080F84230002303637047026802F10C0318
:100E440053E8003F23F010030C3242E8003100293C
:100E5400F3D1ECE710B504460268136923F4405358
:100E6400C1680B43136183680269134342691A43DF
:100E74000168CB6823F4B05323F00C031343CB6015
:100E84000268536923F4407381690B435361026818
:100E9400134B9A4220D0FFF78FFF024602EB8202E7
:100EA40002EB820263689B00B2FBF3F20D48A0FBE5
:100EB40002314909642303FB11231B013233A0FBD4
:100EC40003235B0903F0F00202EB011203F00F03AA
:100ED400216813448B6010BDFFF77EFF0246DDE7F7
:100EE400003801401F85EB512DE9F04383B00546DE
:100EF4000E4617469946DDF828802C68246836EAA1
:100F040004030CBF4FF0010C4FF0000CBC4528D17A
:100F1400B8F1FF3FF1D0FFF7C7FAA0EB0900404555
:100F240023D8B8F1000F22D02B68DA6812F0040F2E
:100F3400E3D0802EE1D0402EDFD01A6812F0080FE3
:100F4400DBD0002401941A6801925B680193019B31
:100F54002846FFF751FF08236B6485F840400120C1
:100F640000E0002003B0BDE8F0830320FAE703208B
:100F7400F8E760B310B5044690F8413013B3242366
:100F840084F841302268D36823F40053D3602046A8
:100F9400FFF760FF2268136923F49043136122680A
:100FA400536923F02A0353612268D36843F400533E
:100FB400D36000206064202384F8413084F84230F8
:100FC400606310BD80F84030FFF7C8F9D7E701200F
:100FD40070472DE9F04182B01E4690F84130DBB2F3
:100FE400202B56D104460D469046002955D00AB907
:100FF40001204FE000234364212380F84130FFF7B0
:1010040053FA0746A4F82480A4F82680A368B3F50D
:10101400805F02D04FF0000814E023692BB34FF037
:1010240000080FE0202384F84130032032E038F830
:10103400023B2268C3F308035360E28C92B2013A84
:1010440092B2E284E38C9BB293B100963B460022B9
:1010540080212046FFF748FF0028E3D1002DE6D089
:1010640015F8012B23685A60E7E7A8460025E9E74D
:1010740000963B46002240212046FFF735FF18B971
:10108400202384F8413005E0202384F841300320F4
:1010940000E0022002B0BDE8F0810120FAE72DE96A
:1010A400F04182B01E4690F84230DBB2202B59D179
:1010B40004460D469046002958D00AB9012052E052
:1010C40000234364222280F842200363FFF7ECF9F3
:1010D4000746A4F82C80A4F82E80A368B3F5805F9B
:1010E40002D04FF000081CE0236913B14FF0000850
:1010F40017E0A846002514E0202384F8423003209A
:1011040031E023685B68C3F3080328F8023B03E07B
:1011140023685B682B700135E28D92B2013A92B27A
:10112400E285E38D9BB2C3B100963B4600222021A9
:101134002046FFF7D9FE0028DED1002DE1D0A368B8
:10114400B3F5805FE4D013B92369002BE0D02368A2
:101154005B6803F07F032B70DDE7202384F84230C3
:10116400002000E0022002B0BDE8F0810120FAE78F
:1011740070B50D4E0D4D761BB61006D0002455F8F3
:10118400043B01349847A642F9D1094E094D00F0B9
:1011940065F8761BB61006D0002455F8043B0134DC
:1011A4009847A642F9D170BD00000000000000007D
:1011B4000000000000000000830730B548D0541E32
:1011C400002A3FD00346CAB201E0013C3AD303F8F7
:1011D400012B9D07F9D1032C2DD9CDB245EA052564
:1011E4000F2C45EA054536D9A4F1100222F00F0C64
:1011F40003F1200EE6444FEA121C03F1100242E907
:10120400045542E9025510327245F8D10CF101023D
:1012140014F00C0F03EB021204F00F0C13D0ACF11A
:10122400040323F003030433134442F8045B93429E
:10123400FBD10CF003042CB1CAB21C4403F8012BFB
:101244009C42FBD130BD64461346002CF4D1F9E72F
:1012540003461446BFE71A46A446E0E7F8B500BFC4
:10126400F8BC08BC9E467047F8B500BFF8BC08BC83
:041274009E467047DB
:1012780077646E6D640A0000000000000000000042
:101288000102030406070809000000000102030424
:1012980002030405060708090A0B0C0D0E0F1010AF
:0412A800010200003F
:0C12AC0000127A00010000001000000099
:04000005080003D913
:00000001FF
