:020000040800F2
:100000000000012021060008C1030008C303000806
:10001000C5030008C7030008C9030008000000006A
:10002000000000000000000000000000CB030008FA
:10003000CD03000800000000CF030008D103000832
:1000400069060008690600086906000869060008D4
:1000500069060008690600086906000869060008C4
:1000600069060008690600086906000869060008B4
:1000700069060008690600086906000869060008A4
:100080006906000869060008690600086906000894
:100090006906000869060008690600086906000884
:1000A0006906000869060008690600086906000874
:1000B0006906000869060008690600086906000864
:1000C0006906000869060008690600086906000854
:1000D00069060008050400086906000869060008AA
:1000E0006906000869060008690600086906000834
:1000F0006906000869060008690600086906000824
:100100006906000869060008690600086906000813
:100110006906000869060008690600086906000803
:1001200069060008690600086906000869060008F3
:1001300000000000000000000000000000000000BF
:1001400000000000000000000000000000000000AF
:10015000000000000000000000000000000000009F
:10016000000000000000000000000000000000008F
:10017000000000000000000000000000000000007F
:10018000000000000000000000000000000000006F
:10019000000000000000000000000000000000005F
:1001A000000000000000000000000000000000004F
:1001B000000000000000000000000000000000003F
:1001C000000000000000000000000000000000002F
:1001D000000000000000000000000000000000001F
:0401E0005FF8E0F1F3
:1001E40084B00F4B9A6942F010029A619A6902F046
:1001F40010020192019A9A6942F004029A619A6982
:1002040002F004020292029A9A6942F008029A6188
:100214009B6903F008030393039B04B0704700BF7A
:100224000010024008B50B480B4B03600B4B4360B6
:1002340000238360C3604FF48042026143618361A1
:10024400C361036200F0DEFC00B908BD00F03AF8B7
:10025400FBE700BF0C00002000580040A08601000E
:1002640010B586B0002302930393049305930268A8
:10027400114B9A4201D006B010BD104CA36943F053
:100284000803A361A36903F008030093009B4FF4E0
:1002940040630293122303930323059302A908489E
:1002A40000F086FBE36943F48003E361E36903F44C
:1002B40080030193019BDEE70058004000100240D8
:1002C400000C014072B6FEE700B591B0282200216F
:1002D40006A801F0CBFE0023019302930393049339
:1002E4000593012206924FF4803307930A92022267
:1002F4000D920E934FF4E0130F9306A800F076FDD1
:1003040080B90F23019302210291002303934FF438
:1003140080620492059301A800F09AFF20B911B0FD
:100324005DF804FBFFF7CEFFFFF7CCFF38B500F014
:10033400C1F9FFF7C9FFFFF753FF00F011F9FFF709
:1003440071FF00F0ADF804210A4801F00BFB012411
:10035400254609E0644264B22819C5B2284600F073
:10036400F9F80A2000F0CAF96B1EDBB2612BF1D850
:10037400F2E700BF6400002082B00E4B9A6942F09D
:1003840001029A619A6902F001020092009ADA6904
:1003940042F08052DA61DB6903F080530193019BE0
:1003A400054A536823F0E06343F00073536002B0DE
:1003B400704700BF0010024000000140FEE7FEE766
:1003C400FEE7FEE7FEE770477047704708B500F0A8
:1003D40083F9084B1A68084BA3FB02139B094FF4DB
:1003E4007A7101FB132303B108BD0121034800F016
:1003F400FFFBF9E7F4000020D34D62100008014030
:1004040008B5024801F0CAFC08BD00BFAC000020DA
:10041400024B01221A70024B1980704760000020C1
:1004240061000020704700000268094B9A4200D026
:10043400704782B003F50133DA6942F00802DA61E9
:10044400DB6903F008030193019B02B0704700BF0E
:10045400000C004000B587B000230293039304937B
:10046400059302680C4B9A4202D007B05DF804FB76
:1004740003F501339A6942F004029A619B6903F01F
:1004840004030193019B022302930393059302A99E
:10049400024800F08DFAE8E7000C00400008014033
:1004A40000B58FB000230A930B930C930D9308931C
:1004B400099301930293039304930593069307937B
:1004C4002248234A02604FF4E1524260836064226E
:1004D400C26003618023836101F0ACF830BB4FF448
:1004E40080530A930AA9194801F0AEF908BB1748CA
:1004F40001F0CCF800BB00230893099308A9134822
:1005040001F0AAFAD8B9602301930023029303935C
:10051400059304220DEB02010C4801F01BF988B984
:100524000A48FFF797FF0FB05DF804FBFFF7CAFE18
:10053400D5E7FFF7C7FEDAE7FFF7C4FEDBE7FFF70F
:10054400C1FEE0E7FFF7BEFEEAE700BF640000205B
:10055400000C0040014B1B68986370476400002046
:1005640008B50A480A4B03604FF4E13343600023A3
:100574008360C36003610C2242618361C36101F043
:1005840051FB00B908BDFFF79DFEFBE7AC0000205E
:100594000038014030B587B00023029303930493DD
:1005A400059302681B4B9A4201D007B030BD03F596
:1005B40058439A6942F480429A619A6902F48042EB
:1005C4000092009A9A6942F004029A619B6903F0CE
:1005D40004030193019B4FF40073029302230393DA
:1005E400032305930C4D02A9284600F0E1F94FF4CA
:1005F4008063029300240394049402A9284600F023
:10060400D7F922462146252000F09EF8252000F047
:10061400D3F8CAE70038014000080140FFF702FFA1
:100624000B480C490C4A002302E0D458C45004334C
:10063400C4188C42F9D3094A094C002301E0136021
:100644000432A242FBD301F0EDFCFFF76FFE7047CA
:10065400000000200C000020582100080C0000209D
:10066400F8000020FEE7000010B504460E4B187891
:100674004FF47A73B3FBF0F30C4A1068B0FBF3F059
:1006840000F0A8F868B90F2C01D901200AE0002273
:1006940021464FF0FF3000F057F8054B1C60002056
:1006A40000E0012010BD00BF040000200000002075
:1006B4000800002008B5074A136843F010031360CC
:1006C400032000F02FF80220FFF7CEFFFFF754FEBF
:1006D400002008BD00200240034A1168034B1B7828
:1006E4000B441360704700BFF40000200400002096
:1006F400014B1868704700BFF400002038B5044669
:10070400FFF7F6FF0546B4F1FF3F02D0044B1B7818
:100714001C44FFF7EDFF401BA042FAD338BD00BFD5
:1007240004000020074AD36823F4E0631B041B0C75
:10073400000200F4E060034343F0BF6343F400337A
:10074400D360704700ED00E000B5194BDB68C3F3DC
:100754000223C3F1070CBCF1040F28BF4FF0040CB3
:1007640003F1040EBEF1060F18D9033B4FF0FF3E10
:100774000EFA0CFC21EA0C0199400EFA03F322EA6A
:100784000303194300280BDB0901C9B200F16040DF
:1007940000F5614080F800135DF804FB0023E5E7F1
:1007A40000F00F000901C9B2024B1954F4E700BF6D
:1007B40000ED00E014ED00E0002807DB00F01F026C
:1007C400400901239340024A42F82030704700BF99
:1007D40000E100E00138B0F1807F0BD24FF0E0235C
:1007E4005861054AF02182F82310002098610722FD
:1007F4001A6170470120704700ED00E090F8213045
:10080400DBB2022B06D004238363002380F820305C
:10081400012070470268136823F00E031360026816
:10082400136823F001031360036CC16B012202FA05
:1008340003F34B6080F82120002380F82030184611
:100844007047000008B590F82130DBB2022B03D0CA
:1008540004238363012008BD0268136823F00E0398
:1008640013600268136823F00103136003684C4AA1
:1008740093424ED9783A934224D01432934230D0E2
:10088400143293422FD0143293422FD01432934215
:100894002FD0143293422FD0143293422FD002F52A
:1008A400627293422ED0143293422DD0143293426A
:1008B4002CD01432934202D04FF4803203E04FF430
:1008C400805200E00122374B5A60012380F8213026
:1008D400002380F82030436B002B5ED09847002023
:1008E400B9E71022EFE74FF48072ECE74FF480523F
:1008F400E9E74FF48032E6E74FF48012E3E74FF084
:100904008072E0E70122DEE71022DCE74FF4807218
:10091400D9E7254A934224D01432934225D0143285
:10092400934224D01432934224D01432934224D0DC
:100934001432934224D01432934224D002F56272CA
:10094400934223D01432934222D01432934221D0C2
:100954001432934202D04FF4803203E04FF48052B9
:1009640000E00122114B5A60AFE71022FAE74FF47E
:100974008072F7E74FF48052F4E74FF48032F1E7E6
:100984004FF48012EEE74FF08072EBE70122E9E7C3
:100994001022E7E74FF48072E4E700205BE700BF32
:1009A40080000240000402400800024000000240AF
:1009B40070B582B00024A446B0E0874DAA4210D09E
:1009C40007D9864DAA420CD005F58035AA4208D035
:1009D40013E0A5F58015AA4203D005F57025AA42B7
:1009E40007D18A68002A62D0012A5BD043610824B7
:1009F40003E0A5F58015AA42F3D0BEF1FF0F58D845
:100A04000646BEF1FF0F56D84FEA8C0233680F2515
:100A1400954023EA050304FA02F2134333604B685A
:100A240013F0805F78D06E4B9A6942F001029A61AC
:100A34009B6903F001030193019B4FEA9C02951CFF
:100A4400684B53F825600CF003039D000F23AB4063
:100A540026EA0306644B984233D003F58063984238
:100A640000F0988003F58063984200F0958003F5C8
:100A74008063984200F0928003F58063984200F00E
:100A84008F8003F58063984219D006231AE0CC685E
:100A9400B3E7CC680434B0E7CC680834ADE7CC687D
:100AA4000C34AAE703610824A7E70024A5E704247B
:100AB400A3E7061DA5E7ACF108029200A6E705230B
:100AC40000E00023AB4033430232464D45F8223068
:100AD4004B6813F4801F65D0444A936843EA0E03BD
:100AE40093604B6813F4001F62D0404AD36843EA12
:100AF4000E03D3604B6813F4003F5FD03B4A536846
:100B040043EA0E0353604B6813F4803F5CD0374ACA
:100B1400136843EA0E0313600CF1010C0A6832FAFD
:100B24000CF357D0012303FA0CF302EA030E33EA61
:100B34000202F1D14A68122A3FF63FAF122A3FF669
:100B44005CAF01A555F822F0E7090008930A0008F4
:100B54009D0A0008AF0A0008FF090008FF09000801
:100B6400FF090008FF090008FF090008FF09000841
:100B7400FF090008FF090008FF090008FF09000831
:100B8400FF090008FF090008FF090008970A000888
:100B9400A30A0008012395E7022393E7032391E7BF
:100BA40004238FE7114A936823EA0E03936098E7BE
:100BB4000E4AD36823EA0E03D3609BE70B4A5368BB
:100BC40023EA0E0353609EE7084A136823EA0E03E0
:100BD4001360A1E702B070BD0000221000003110C4
:100BE40000100240000001400008014000040140E0
:100BF400C36801EA030221EA030141EA02410161F7
:100C040070470000002800F0CC8070B5044690F8CE
:100C14003D30002B77D0242384F83D3022681368BC
:100C240023F0010313602268136843F40043136044
:100C34002268136823F40043136000F0C5FB626864
:100C44005A4B9A4264D85A4B98428CBF00230123D2
:100C5400002B40F0A8805749A1FB00318B0C25687C
:100C64006A6822F03F0242EA91426A6021680A6A95
:100C740022F03F0266684D4DAE424FD80133134314
:100C84000B622168CA6922F44F4222F0FF026668AF
:100C9400464B9E424CD8431E7600B3FBF6F3013319
:100CA40040F6FC70034278D0C3F30B031343CB61CB
:100CB40021680B6823F0C003E269206A02431343EE
:100CC4000B6021688B6823F4034323F0FF0322693C
:100CD400E068024313438B602168CB6823F0FF0371
:100CE4006269A06902431343CB602268136843F02E
:100CF4000103136000202064202384F83D30206326
:100D040084F83E0070BD80F83C30FFF7A9FA82E712
:100D1400294B98428CBF0023012399E74FF4967521
:100D240005FB03F3254DA5FB03539B090133A6E7FC
:100D3400A368BBB9451E06EB460CB5FBFCF50135B3
:100D4400C5F30B05B5FA85F56D0945BBC3B9013883
:100D540006EB4603B0FBF3F30133C3F30B0343F495
:100D64000043A3E7451E06EB860C0CEB8C0CB5FB8D
:100D7400FCF50135C5F30B05B5FA85F56D09E4E716
:100D8400013806EB860303EB8303B0FBF3F3013373
:100D9400C3F30B0343F4404388E7042386E70123AA
:100DA40084E7012070470120ACE700BFA086010062
:100DB4007F841E0083DE1B43FF083D00D34D621079
:100DC40082B0084B1B68084AA2FB03235B0A00FBA2
:100DD40003F3019300BF019B5A1E0192002BF9D12A
:100DE40002B0704700000020D34D6210002800F0CC
:100DF400F18170B582B00446036813F0010F2CD062
:100E0400994B5B6803F00C03042B1DD0964B5B6875
:100E140003F00C03082B12D06368B3F5803F41D074
:100E2400002B55D103F1804303F504331A6822F4EF
:100E340080321A601A6822F480221A6037E08A4BE2
:100E44005B6813F4803FE7D0874B1B6813F4003FC3
:100E540003D06368002B00F0BF81236813F0020FF6
:100E640075D0814B5B6813F00C0F5FD07E4B5B68D1
:100E740003F00C03082B54D02369002B00F08A8064
:100E84007A4B01221A60FFF733FC0546764B1B6848
:100E940013F0020F75D1FFF72BFC401B0228F5D984
:100EA40003209EE1704A136843F48033136063683F
:100EB40043B3FFF71DFC05466B4B1B6813F4003F5F
:100EC400CBD1FFF715FC401B6428F5D9032088E13A
:100ED400B3F5A02F09D0644B1A6822F480321A604B
:100EE4001A6822F480221A60E1E703F18043A3F533
:100EF4003C331A6842F480221A601A6842F4803241
:100F04001A60D4E7FFF7F4FB0546574B1B6813F44C
:100F1400003FA2D0FFF7ECFB401B6428F5D9032067
:100F24005FE1514B5B6813F4803FA5D14E4B1B68C6
:100F340013F0020F03D02369012B40F04F814A4A7A
:100F4400136823F0F803616943EAC103136023685B
:100F540013F0080F33D0A369002B5CD0434B01225C
:100F6400C3F88024FFF7C4FB05463F4B5B6A13F0CC
:100F7400020F21D1FFF7BCFB401B0228F5D9032047
:100F84002FE1394A136823F0F803616943EAC10386
:100F94001360DCE7354B00221A60FFF7A9FB054616
:100FA400314B1B6813F0020FD1D0FFF7A1FB401B9C
:100FB4000228F5D9032014E10120FFF701FF23687B
:100FC40013F0040F00F09680274BDB6913F0805F69
:100FD40034D1254BDA6942F08052DA61DB6903F0DF
:100FE40080530193019B0125214B1B6813F4807FDF
:100FF40026D0E368012B3DD0002B53D103F180436D
:1010040003F504331A6A22F001021A621A6A22F002
:1010140004021A6233E0154B0022C3F88024FFF760
:1010240067FB0546104B5B6A13F0020FC7D0FFF74E
:101034005FFB401B0228F5D90320D2E00025D3E74B
:101044000B4A136843F480731360FFF751FB0646A1
:10105400074B1B6813F4807FCBD1FFF749FB801B40
:101064006428F5D90320BCE000100240000042428D
:10107400007000405F4A136A43F001031362E3689F
:1010840033B3FFF735FB06465A4B1B6A13F0020FC6
:101094002FD1FFF72DFB801B41F288339842F3D9FF
:1010A40003209EE0052B09D0524B1A6A22F001025C
:1010B4001A621A6A22F004021A62E0E74D4B1A6AB5
:1010C40042F004021A621A6A42F001021A62D6E776
:1010D400FFF70EFB0646474B1B6A13F0020F08D0BE
:1010E400FFF706FB801B41F288339842F3D90320B3
:1010F40077E0E5B9E369002B72D03E4A526802F00A
:101104000C02082A56D0022B17D03B4B00221A6639
:10111400FFF7EEFA0446374B1B6813F0007F47D005
:10112400FFF7E6FA001B0228F5D9032059E0314AFB
:10113400D36923F08053D361DCE72F4B00221A6676
:10114400FFF7D6FA05462B4B1B6813F0007F06D039
:10115400FFF7CEFA401B0228F5D9032041E0236AA9
:10116400B3F5803F1AD023494B6823F47413226AE1
:10117400606A024313434B601F4B01221A66FFF758
:10118400B7FA04461B4B1B6813F0007F0ED1FFF720
:10119400AFFA001B0228F5D9032022E0154A536850
:1011A40023F40033A1680B435360DCE7002018E00C
:1011B400002016E0012B16D00E4B5B6803F480313F
:1011C400226A914211D103F47013626A93420ED1E0
:1011D400002006E001207047012002E0012000E029
:1011E400002002B070BD0120FBE70120F9E70120D7
:1011F400F7E700BF00100240000042420F4B5B685B
:1012040003F00C02082A01D00D487047C3F383424F
:101214000C49885C13F4803F0BD0084B5B68C3F324
:101224004043094AD35C064A02FB00F0B0FBF3F0EA
:101234007047064B03FB00F0704700BF00100240EC
:1012440000127A00442100085421000800093D00DE
:10125400002800F0A08070B50D460446524B1B6870
:1012640003F007038B420BD24F4A136823F00703A2
:101274000B431360136803F007038B4240F08D8027
:10128400236813F0020F17D013F0040F04D0474A59
:10129400536843F4E0635360236813F0080F04D0E9
:1012A400424A536843F460535360404A536823F0FE
:1012B400F003A1680B435360236813F0010F31D08E
:1012C4006368012B20D0022B25D0384A126812F013
:1012D400020F64D035494A6822F0030213434B607D
:1012E400FFF706FA0646314B5B6803F00C036268AD
:1012F400B3EB820F16D0FFF7FBF9801B41F2883362
:101304009842F0D9032045E0284A126812F4003FBD
:10131400E0D101203EE0254A126812F0007FD9D1C5
:10132400012037E0204B1B6803F00703AB420AD9C6
:101334001D4A136823F007032B431360136803F05B
:101344000703AB422DD1236813F0040F06D0174ACC
:10135400536823F4E063E1680B435360236813F09C
:10136400080F07D0114A536823F46053216943EAF4
:10137400C1035360FFF742FF0C4B5B68C3F30313D5
:101384000B4AD35CD8400B4B18600B4B1868FFF723
:101394006BF9002070BD012070470120FAE701209D
:1013A400F8E70120F6E700BF0020024000100240E9
:1013B4002C2100080000002008000020014B1868C0
:1013C400704700BF0000002008B5FFF7F7FF044B8B
:1013D4005B68C3F30223034AD35CD84008BD00BF53
:1013E400001002403C21000808B5FFF7E7FF044B5A
:1013F4005B68C3F3C223034AD35CD84008BD00BF73
:10140400001002403C21000830B4036A026A22F052
:10141400010202624268846924F073040D682C435B
:1014240023F0020C8B6843EA0C03104DA84203D04E
:1014340005F50065A84205D123F00803CD682B43C8
:1014440023F00403094DA84203D005F50065A84222
:1014540005D122F440724D692A438D692A434260C2
:1014640084614A684263036230BC7047002C0140C7
:1014740030B4036A026A22F4807202624268C46968
:1014840024F0730C0C6844EA0C0523F400738C6894
:1014940043EA0423114CA04203D004F50064A042A3
:1014A40006D123F40063CC6843EA042323F4806365
:1014B4000A4CA04203D004F50064A04207D122F4F0
:1014C40040524C6942EA04128C6942EA04124260B6
:1014D400C5614A68C263036230BC7047002C014096
:1014E40030B4036A026A22F4805202624468C26918
:1014F40022F4E6420D6842EA052223F400538D6883
:1015040043EA0533094DA84203D005F50065A84216
:1015140004D124F480444D6944EA85144460C261D2
:101524004A680264036230BC704700BF002C01406B
:1015340010B4036A046A24F001040462846924F088
:10154400F00C4CEA021223F00A030B43826103629B
:1015540010BC704710B4036A046A24F010040462D7
:10156400846924F4704C4CEA023223F0A00343EA69
:1015740001138261036210BC7047836823F0700317
:101584000B4343F007038360704770470368284A9E
:10159400904212D002F5006290420ED0B0F1804F1A
:1015A4000BD0A2F59832904207D002F580629042A7
:1015B40003D002F58062904203D123F070034A689D
:1015C40013431B4A904212D002F5006290420ED09F
:1015D400B0F1804F0BD0A2F59832904207D002F5BB
:1015E4008062904203D002F58062904203D123F4DA
:1015F4004073CA68134323F080034A6913430360AA
:101604008B68C3620B688362094B984203D003F56D
:101614000063984201D10B690363012343610369A9
:1016240013F0010F03D0036923F001030361704732
:10163400002C014040B310B5044690F83D30F3B19E
:10164400022384F83D30214651F8040BFFF79EFF36
:10165400012384F8463084F83E3084F83F3084F81F
:10166400403084F8413084F8423084F8433084F8C0
:10167400443084F8453084F83D30002010BD80F8B3
:101684003C30FEF7D1FEDBE70120704740B310B5D4
:10169400044690F83D30F3B1022384F83D302146EE
:1016A40051F8040BFFF772FF012384F8463084F8E5
:1016B4003E3084F83F3084F8403084F8413084F878
:1016C400423084F8433084F8443084F8453084F858
:1016D4003D30002010BD80F83C30FFF756FFDBE7BB
:1016E4000120704730B4036A026A22F010020262D9
:1016F4004468826922F4E6420D6842EA052223F036
:1017040020038D6843EA0513114DA84203D005F563
:101714000065A84206D123F08003CD6843EA05138F
:1017240023F040030A4DA84203D005F50065A84202
:1017340007D124F440644D6944EA85048D6944EA80
:101744008504446082614A688263036230BC7047E6
:10175400002C014038B590F83C30012B66D004468B
:101764000D46012380F83C300C2A5AD8DFE802F0F9
:10177400075959591B595959305959594400006846
:10178400FFF742FE2268936943F0080393612268DD
:10179400936923F0040393612268936929690B43D5
:1017A400936100203EE00068FFF79CFF2268936984
:1017B40043F4006393612268936923F48063936123
:1017C40022689369296943EA01239361002029E08F
:1017D4000068FFF74DFE2268D36943F00803D36124
:1017E4002268D36923F00403D3612268D369296989
:1017F4000B43D361002015E00068FFF771FE2268F7
:10180400D36943F40063D3612268D36923F480630A
:10181400D3612268D369296943EA0123D361002093
:1018240000E00120002384F83C3038BD0220FCE7AE
:1018340010B4846824F47F4C42EA03220A4342EA47
:101844000C02826010BC704790F83C30012B78D0B9
:1018540010B50446012380F83C30022380F83D3063
:101864000268936823F47F4323F0770393600B6843
:10187400602B4CD029D8402B54D00CD9502B22D1DA
:10188400CA6849680068FFF753FE50212068FFF7D3
:1018940074FE002005E0202B0DD009D9302B0AD08E
:1018A4000120012384F83D30002384F83C3010BD2E
:1018B4000BB1102B05D119462068FFF75EFE0020FE
:1018C400EFE70120EDE70120EBE7B3F5805F34D0CB
:1018D400B3F5005F0CD1CB684A6889680068FFF7EC
:1018E400A7FF2268936843F4804393600020D8E7FD
:1018F400702B24D1CB684A6889680068FFF798FF89
:101904002268936843F0770393600020C9E7CA68AC
:1019140049680068FFF71EFE60212068FFF72DFE6E
:101924000020BEE7CA6849680068FFF701FE40214D
:101934002068FFF722FE0020B3E70020B1E7012072
:10194400AFE70220704701F01F01012303FA01FCF5
:10195400036A23EA0C030362036A02FA01F10B43EC
:101964000362704710B50446084600293AD194F83A
:101974003E30DBB2013B18BF0123002B66D10028A7
:1019840049D1022384F83E30012201462068FFF742
:10199400DAFF23682F4A934203D002F50062934290
:1019A40003D15A6C42F400425A642368294A934290
:1019B40041D002F5006293423DD0B3F1804F3AD05A
:1019C400A2F59832934236D002F58062934232D027
:1019D40002F5806293422ED01A6842F001021A6026
:1019E400002032E0042908D008290DD094F84130B1
:1019F400DBB2013B18BF0123BFE794F83F30DBB2F1
:101A0400013B18BF0123B8E794F84030DBB2013B37
:101A140018BF0123B1E7042805D0082807D0022302
:101A240084F84130B0E7022384F83F30ACE7022366
:101A340084F84030A8E79A6802F00702062A07D023
:101A44001A6842F001021A60002010BD0120FCE770
:101A54000020FAE7002C014090F83C30012B34D0F0
:101A640010B4012380F83C30022380F83D30036831
:101A74005A689C6822F0700C0A6842EA0C025A60A8
:101A84000368134A934212D002F5006293420ED0C7
:101A9400B3F1804F0BD0A2F59832934207D002F5F0
:101AA4008062934203D002F58062934204D124F011
:101AB40080044A6814439C60012380F83D3000236D
:101AC40080F83C30184610BC70470220704700BFB5
:101AD400002C0140026802F10C0353E8003F23F498
:101AE40090730C3242E800310029F3D1026802F10C
:101AF400140353E8003F23F00103143242E8003199
:101B04000029F3D1036B012B05D0202380F8423048
:101B1400002303637047026802F10C0353E8003F9B
:101B240023F010030C3242E800310029F3D1ECE732
:101B340090F84130DBB2212B01D00220704783683A
:101B4400B3F5805F17D0036A5A1C02621A780368DF
:101B54005A60C38C9BB2013B9BB2C3844BB90268ED
:101B6400D36823F08003D3600268D36843F0400352
:101B7400D360002070470369002BE4D1036A1B88FB
:101B84000268C3F308035360036A02330362E0E7A5
:101B940010B504460268136923F44053C1680B432B
:101BA400136183680269134342691A430168CB686D
:101BB40023F4B05323F00C031343CB60026853693E
:101BC40023F4407381690B4353610268134B9A42B7
:101BD40020D0FFF7F9FB024602EB820202EB8202FD
:101BE40063689B00B2FBF3F20D48A0FB0231490984
:101BF400642303FB11231B013233A0FB03235B0982
:101C040003F0F00202EB011203F00F032168134406
:101C14008B6010BDFFF7E8FB0246DDE700380140AA
:101C24001F85EB5160B310B5044690F8413013B3EF
:101C3400242384F841302268D36823F40053D3600A
:101C44002046FFF7A5FF2268136923F4904313612C
:101C54002268536923F02A0353612268D36843F44A
:101C64000053D36000206064202384F8413084F85A
:101C74004230606310BD80F84030FEF78BFCD7E73C
:101C840001207047704708B50168CA6822F0400215
:101C9400CA60202280F84120FFF7F4FF002008BD2D
:101CA4007047704708B5406A0023C385C384FFF7B3
:101CB400F8FF08BD90F84230DBB2222B69D183686B
:101CC400B3F5805F4FD0826AB3F5805F04D0002BF8
:101CD40056D10369002B53D103685B681370836A80
:101CE40001338362C38D9BB2013B9BB2C385002B3E
:101CF40051D100B583B00268D36823F02003D360C8
:101D04000268D36823F48073D3600268536923F0B4
:101D140001035361202380F8423000234363036BA3
:101D2400012B33D100230363026802F10C0353E84F
:101D3400003F23F010030C3242E800310029F3D1B4
:101D440003681A6812F0100F06D0002201921A6874
:101D540001925B680193019B818DFEF759FB002082
:101D640003B05DF804FB0269002AACD1826A0368FF
:101D74005B68C3F308031380836A02338362B1E7A9
:101D840003685B6803F07F031370A8E7FFF788FF1D
:101D9400E5E70220704700207047000030B583B0AB
:101DA400044602681368D068516913F00F0505D121
:101DB40013F0200F02D010F0200F19D12DB111F023
:101DC400010119D110F4907F16D1216B01297DD026
:101DD40013F0800F03D010F0800F40F0188113F03F
:101DE400400F03D010F0400F40F0158103B030BD18
:101DF4002046FFF75FFFF9E713F0010F06D010F458
:101E0400807F03D0626C42F00102626413F0040F1D
:101E140004D019B1626C42F00202626413F0020F42
:101E240004D019B1626C42F00402626413F0080F2A
:101E340007D010F0200F00D119B1626C42F00802F3
:101E44006264626C002AD1D013F0200F02D010F02B
:101E5400200F29D123685B6903F04003626C12F000
:101E6400080F00D163B32046FFF734FE23685B6993
:101E740013F0400F20D0226802F1140353E8003F0E
:101E840023F04003143242E800310029F3D1E36B1C
:101E940073B1634A5A63E06BFEF7D4FC0028A5D003
:101EA400E06B436B9847A1E72046FFF703FFD1E7B8
:101EB4002046FFF7F6FE99E72046FFF7F2FE95E786
:101EC4002046FFF7EEFE002363648FE713F0100F44
:101ED4003FF47EAF10F0100F3FF47AAF002301936C
:101EE4001368019353680193019B536913F0400FE6
:101EF40051D0E26B13685B689BB2002B3FF476AF62
:101F0400A18D99427FF672AFE3859369202B37D078
:101F1400226802F10C0353E8003F23F480730C326F
:101F240042E800310029F3D1226802F1140353E896
:101F3400003F23F00103143242E800310029F3D1B9
:101F4400226802F1140353E8003F23F040031432E3
:101F540042E800310029F3D1202384F842300023E1
:101F64002363226802F10C0353E8003F23F01003BB
:101F74000C3242E800310029F3D1E06BFEF73EFC5D
:101F840002236363A18DE38D9BB2C91A89B22046F3
:101F9400FEF73EFA2AE7A18DE38D9BB2C91A89B2F6
:101FA400E38D9BB2002B3FF421AF00293FF41EAF19
:101FB400226802F10C0353E8003F23F490730C32BF
:101FC40042E800300028F3D1226802F1140353E8F8
:101FD400003F23F00103143242E800300028F3D11B
:101FE400202384F8423000232363226802F10C0387
:101FF40053E8003F23F010030C3242E8003000287D
:10200400F3D1022363632046FEF702FAEEE620468C
:10201400FFF78EFDEAE62046FFF735FEE6E600BF51
:10202400A91C000870B50D4E0D4D761BB61006D0D8
:10203400002455F8043B01349847A642F9D1094ECF
:10204400094D00F065F8761BB61006D0002455F84B
:10205400043B01349847A642F9D170BD000000004A
:10206400000000000000000000000000830730B5FD
:1020740048D0541E002A3FD00346CAB201E0013CB6
:102084003AD303F8012B9D07F9D1032C2DD9CDB2F6
:1020940045EA05250F2C45EA054536D9A4F1100279
:1020A40022F00F0C03F1200EE6444FEA121C03F158
:1020B400100242E9045542E9025510327245F8D142
:1020C4000CF1010214F00C0F03EB021204F00F0CDC
:1020D40013D0ACF1040323F003030433134442F894
:1020E400045B9342FBD10CF003042CB1CAB21C4430
:1020F40003F8012B9C42FBD130BD64461346002CEF
:10210400F4D1F9E703461446BFE71A46A446E0E7CC
:10211400F8B500BFF8BC08BC9E467047F8B500BFD0
:08212400F8BC08BC9E467047A0
:10212C00000000000000000001020304060708097B
:10213C00000000000102030402030405060708095D
:0C214C000A0B0C0D0E0F10100102000019
:0C21580000127A000100000010000000DE
:0400000508000621C8
:00000001FF
