:020000040800F2
:1000000000000120C1050008D9030008DB03000837
:10001000DD030008DF030008E10300080000000022
:10002000000000000000000000000000E3030008E2
:10003000E503000800000000E7030008E9030008EA
:100040000906000809060008090600080906000854
:100050000906000809060008090600080906000844
:100060000906000809060008090600080906000834
:100070000906000809060008090600080906000824
:100080000906000809060008090600080906000814
:100090000906000809060008090600080906000804
:1000A00009060008090600080906000809060008F4
:1000B00009060008090600080906000809060008E4
:1000C00009060008090600080906000809060008D4
:1000D000090600081D0400080906000809060008B2
:1000E00009060008090600080906000809060008B4
:1000F00009060008090600080906000809060008A4
:100100000906000809060008090600080906000893
:1001100009060008090600082D0400080906000861
:100120000906000809060008090600080906000873
:1001300000000000000000000000000000000000BF
:1001400000000000000000000000000000000000AF
:10015000000000000000000000000000000000009F
:10016000000000000000000000000000000000008F
:10017000000000000000000000000000000000007F
:10018000000000000000000000000000000000006F
:10019000000000000000000000000000000000005F
:1001A000000000000000000000000000000000004F
:1001B000000000000000000000000000000000003F
:1001C000000000000000000000000000000000002F
:1001D000000000000000000000000000000000001F
:0401E0005FF8E0F1F3
:1001E40008B500F03BF808BD30B589B0002404948C
:1001F400059406940794174B9A6942F010029A6189
:100204009A6902F010020192019A9A6942F004027A
:100214009A619A6902F004020292029A9A6942F07F
:1002240008029A619B6903F008030393039B0A4D38
:1002340001220221284600F097FC022304930123A3
:10024400059306940323079304A9284600F06CFB46
:1002540009B030BD001002400008014008B50B4849
:100264000B4B03600B4B436000238360C3604FF46C
:100274008042026143618361C361036200F084FCD4
:1002840000B908BD00F03AF8FBE700BF0C000020FD
:1002940000580040A086010010B586B000230293E8
:1002A4000393049305930268114B9A4201D006B05C
:1002B40010BD104CA36943F00803A361A36903F0C4
:1002C40008030093009B4FF44063029312230393AB
:1002D4000323059302A9084800F026FBE36943F4CD
:1002E4008003E361E36903F480030193019BDEE788
:1002F4000058004000100240000C014072B6FEE7B6
:1003040000B591B02822002106A801F0BBFC00230F
:1003140001930293039304930593012206924FF4ED
:10032400803307930A9202220D920E934FF4E01346
:100334000F9306A800F01CFD80B90F23019302213E
:100344000291002303934FF480620492059301A861
:1003540000F040FF20B911B05DF804FBFFF7CEFFB9
:10036400FFF7CCFF08B500F075F9FFF7C9FFFFF7F9
:100374003BFF00F0C5F8FFF771FF00F069F8FFF7E5
:100384002FFF024801F002F8FEE700BF64000020DE
:1003940082B00E4B9A6942F001029A619A6902F0A6
:1003A40001020092009ADA6942F08052DA61DB6954
:1003B40003F080530193019B054A536823F0E063E3
:1003C40043F00073536002B0704700BF0010024056
:1003D40000000140FEE7FEE7FEE7FEE7FEE77047A8
:1003E4007047704708B500F047F9084B1A68084B86
:1003F400A3FB02139B094FF47A7101FB132303B18E
:1004040008BD0121034800F0B5FBF9E7F400002022
:10041400D34D62100008014008B5024801F0CAFA41
:1004240008BD00BFAC00002008B5024800F0EEFF94
:1004340008BD00BF64000020024B01221A70024B69
:1004440019807047600000206100002070470000A0
:1004540000B583B00023009301930F480F4A026054
:1004640041F61F424260836042F20F72C2608361B0
:1004740001F0D0F850B9002300930193694606486F
:1004840001F0F4F828B903B05DF804FBFFF736FF78
:10049400F1E7FFF733FFF6E76400002000100040A7
:1004A40002680E4B9A4200D0704700B583B003F542
:1004B4000033DA6942F01002DA61DB6903F01003F9
:1004C4000193019B00221146362000F0F9F83620F2
:1004D40000F02EF903B05DF804FB00BF00100040EB
:1004E40008B50268044B9A4200D008BD02210348B3
:1004F40000F040FBF9E700BF001000400008014095
:1005040008B50A480A4B03604FF4E1334360002303
:100514008360C36003610C2242618361C36101F0A3
:100524008DF900B908BDFFF7E9FEFBE7AC00002038
:100534000038014030B587B000230293039304933D
:10054400059302681B4B9A4201D007B030BD03F5F6
:1005540058439A6942F480429A619A6902F480424B
:100564000092009A9A6942F004029A619B6903F02E
:1005740004030193019B4FF400730293022303933A
:10058400032305930C4D02A9284600F0CDF94FF43E
:100594008063029300240394049402A9284600F083
:1005A400C3F922462146252000F08AF8252000F0D0
:1005B400BFF8CAE70038014000080140FFF746FFD2
:1005C4000B480C490C4A002302E0D458C4500433AD
:1005D400C4188C42F9D3094A094C002301E0136082
:1005E4000432A242FBD301F029FBFFF7BBFE7047A4
:1005F400000000200C000020701D00080C000020EA
:10060400F8000020FEE7000010B504460E4B1878F1
:100614004FF47A73B3FBF0F30C4A1068B0FBF3F0B9
:1006240000F094F868B90F2C01D901200AE00022E7
:1006340021464FF0FF3000F043F8054B1C600020CA
:1006440000E0012010BD00BF0400002000000020D5
:100654000800002008B5074A136843F0100313602C
:10066400032000F01BF80220FFF7CEFFFFF790FEF7
:10067400002008BD00200240034A1168034B1B7888
:100684000B441360704700BFF400002004000020F6
:10069400014B1868704700BFF4000020074AD36874
:1006A40023F4E0631B041B0C000200F4E06003432A
:1006B40043F0BF6343F40033D360704700ED00E0C0
:1006C40000B5194BDB68C3F30223C3F1070CBCF17B
:1006D400040F28BF4FF0040C03F1040EBEF1060F03
:1006E40018D9033B4FF0FF3E0EFA0CFC21EA0C0133
:1006F40099400EFA03F322EA0303194300280BDBA3
:100704000901C9B200F1604000F5614080F80013AE
:100714005DF804FB0023E5E700F00F000901C9B20E
:10072400024B1954F4E700BF00ED00E014ED00E0C3
:10073400002807DB00F01F02400901239340024A0E
:1007440042F82030704700BF00E100E00138B0F10A
:10075400807F0BD24FF0E0235861054AF02182F8E4
:1007640023100020986107221A6170470120704706
:1007740000ED00E090F82130DBB2022B06D0042318
:100784008363002380F820300120704702681368D7
:1007940023F00E0313600268136823F0010313604F
:1007A400036CC16B012202FA03F34B6080F8212031
:1007B400002380F8203018467047000008B590F8F0
:1007C4002130DBB2022B03D004238363012008BD54
:1007D4000268136823F00E0313600268136823F0A1
:1007E4000103136003684C4A93424ED9783A93420A
:1007F40024D01432934230D0143293422FD0143286
:1008040093422FD0143293422FD0143293422FD0DC
:10081400143293422FD002F5627293422ED01432D6
:1008240093422DD0143293422CD01432934202D0EE
:100834004FF4803203E04FF4805200E00122374B42
:100844005A60012380F82130002380F82030436B64
:10085400002B5ED098470020B9E71022EFE74FF451
:100864008072ECE74FF48052E9E74FF48032E6E718
:100874004FF48012E3E74FF08072E0E70122DEE7F5
:100884001022DCE74FF48072D9E7254A934224D042
:100894001432934225D01432934224D0143293421A
:1008A40024D01432934224D01432934224D01432EC
:1008B400934224D002F56272934223D014329342BD
:1008C40022D01432934221D01432934202D04FF4F6
:1008D400803203E04FF4805200E00122114B5A6051
:1008E400AFE71022FAE74FF48072F7E74FF4805233
:1008F400F4E74FF48032F1E74FF48012EEE74FF063
:100904008072EBE70122E9E71022E7E74FF48072F7
:10091400E4E700205BE700BF8000024000040240DF
:10092400080002400000024070B582B00024A446D2
:10093400B0E0874DAA4210D007D9864DAA420CD008
:1009440005F58035AA4208D013E0A5F58015AA4222
:1009540003D005F57025AA4207D18A68002A62D01F
:10096400012A5BD04361082403E0A5F58015AA425F
:10097400F3D0BEF1FF0F58D80646BEF1FF0F56D88C
:100984004FEA8C0233680F25954023EA050304FAE5
:1009940002F2134333604B6813F0805F78D06E4BE0
:1009A4009A6942F001029A619B6903F00103019381
:1009B400019B4FEA9C02951C684B53F825600CF090
:1009C40003039D000F23AB4026EA0306644B9842C1
:1009D40033D003F58063984200F0988003F5806378
:1009E400984200F0958003F58063984200F092806D
:1009F40003F58063984200F08F8003F5806398428A
:100A040019D006231AE0CC68B3E7CC680434B0E705
:100A1400CC680834ADE7CC680C34AAE70361082439
:100A2400A7E70024A5E70424A3E7061DA5E7ACF186
:100A340008029200A6E7052300E00023AB403343FD
:100A44000232464D45F822304B6813F4801F65D0BE
:100A5400444A936843EA0E0393604B6813F4001FFF
:100A640062D0404AD36843EA0E03D3604B6813F460
:100A7400003F5FD03B4A536843EA0E0353604B6820
:100A840013F4803F5CD0374A136843EA0E031360C3
:100A94000CF1010C0A6832FA0CF357D0012303FA63
:100AA4000CF302EA030E33EA0202F1D14A68122A75
:100AB4003FF63FAF122A3FF65CAF01A555F822F08E
:100AC4005F0900080B0A0008150A0008270A000835
:100AD40077090008770900087709000877090008F2
:100AE40077090008770900087709000877090008E2
:100AF40077090008770900087709000877090008D2
:100B0400770900080F0A00081B0A0008012395E76B
:100B1400022393E7032391E704238FE7114A9368A1
:100B240023EA0E03936098E70E4AD36823EA0E0380
:100B3400D3609BE70B4A536823EA0E0353609EE796
:100B4400084A136823EA0E031360A1E702B070BDDC
:100B5400000022100000311000100240000001408B
:100B640000080140000401400AB101617047090412
:100B740001617047C36801EA030221EA030141EA03
:100B84000241016170470000002800F0CC8070B57C
:100B9400044690F83D30002B77D0242384F83D3070
:100BA4002268136823F0010313602268136843F476
:100BB400004313602268136823F40043136000F0B9
:100BC400C5FB62685A4B9A4264D85A4B98428CBF10
:100BD40000230123002B40F0A8805749A1FB0031DA
:100BE4008B0C25686A6822F03F0242EA91426A60EF
:100BF40021680A6A22F03F0266684D4DAE424FD822
:100C0400013313430B622168CA6922F44F4222F074
:100C1400FF026668464B9E424CD8431E7600B3FBE7
:100C2400F6F3013340F6FC70034278D0C3F30B03B0
:100C34001343CB6121680B6823F0C003E269206A87
:100C4400024313430B6021688B6823F4034323F0AE
:100C5400FF032269E068024313438B602168CB6879
:100C640023F0FF036269A06902431343CB60226847
:100C7400136843F00103136000202064202384F8E8
:100C84003D30206384F83E0070BD80F83C30FFF7AF
:100C940003FB82E7294B98428CBF0023012399E789
:100CA4004FF4967505FB03F3254DA5FB03539B09F0
:100CB4000133A6E7A368BBB9451E06EB460CB5FB9A
:100CC400FCF50135C5F30B05B5FA85F56D0945BB92
:100CD400C3B9013806EB4603B0FBF3F30133C3F3A6
:100CE4000B0343F40043A3E7451E06EB860C0CEB11
:100CF4008C0CB5FBFCF50135C5F30B05B5FA85F590
:100D04006D09E4E7013806EB860303EB8303B0FBCC
:100D1400F3F30133C3F30B0343F4404388E70423A1
:100D240086E7012384E7012070470120ACE700BF78
:100D3400A08601007F841E0083DE1B43FF083D0064
:100D4400D34D621082B0084B1B68084AA2FB0323F0
:100D54005B0A00FB03F3019300BF019B5A1E01923F
:100D6400002BF9D102B0704700000020D34D62106F
:100D7400002800F0F18170B582B00446036813F0D6
:100D8400010F2CD0994B5B6803F00C03042B1DD08E
:100D9400964B5B6803F00C03082B12D06368B3F521
:100DA400803F41D0002B55D103F1804303F5043338
:100DB4001A6822F480321A601A6822F480221A60B7
:100DC40037E08A4B5B6813F4803FE7D0874B1B689E
:100DD40013F4003F03D06368002B00F0BF81236845
:100DE40013F0020F75D0814B5B6813F00C0F5FD0CA
:100DF4007E4B5B6803F00C03082B54D02369002B53
:100E040000F08A807A4B01221A60FFF741FC054604
:100E1400764B1B6813F0020F75D1FFF739FC401BAA
:100E24000228F5D903209EE1704A136843F4803305
:100E34001360636843B3FFF72BFC05466B4B1B68D9
:100E440013F4003FCBD1FFF723FC401B6428F5D9F2
:100E5400032088E1B3F5A02F09D0644B1A6822F46B
:100E640080321A601A6822F480221A60E1E703F1E2
:100E74008043A3F53C331A6842F480221A601A684E
:100E840042F480321A60D4E7FFF702FC0546574B60
:100E94001B6813F4003FA2D0FFF7FAFB401B642841
:100EA400F5D903205FE1514B5B6813F4803FA5D172
:100EB4004E4B1B6813F0020F03D02369012B40F043
:100EC4004F814A4A136823F0F803616943EAC10376
:100ED4001360236813F0080F33D0A369002B5CD090
:100EE400434B0122C3F88024FFF7D2FB05463F4B56
:100EF4005B6A13F0020F21D1FFF7CAFB401B0228E3
:100F0400F5D903202FE1394A136823F0F803616906
:100F140043EAC1031360DCE7354B00221A60FFF794
:100F2400B7FB0546314B1B6813F0020FD1D0FFF716
:100F3400AFFB401B0228F5D9032014E10120FFF781
:100F440001FF236813F0040F00F09680274BDB6940
:100F540013F0805F34D1254BDA6942F08052DA61B4
:100F6400DB6903F080530193019B0125214B1B682E
:100F740013F4807F26D0E368012B3DD0002B53D19E
:100F840003F1804303F504331A6A22F001021A6262
:100F94001A6A22F004021A6233E0154B0022C3F8E5
:100FA4008024FFF775FB0546104B5B6A13F0020FB4
:100FB400C7D0FFF76DFB401B0228F5D90320D2E010
:100FC4000025D3E70B4A136843F480731360FFF7DB
:100FD4005FFB0646074B1B6813F4807FCBD1FFF7FA
:100FE40057FB801B6428F5D90320BCE000100240A5
:100FF40000004242007000405F4A136A43F001035C
:101004001362E36833B3FFF743FB06465A4B1B6A8C
:1010140013F0020F2FD1FFF73BFB801B41F2883303
:101024009842F3D903209EE0052B09D0524B1A6A4B
:1010340022F001021A621A6A22F004021A62E0E73C
:101044004D4B1A6A42F004021A621A6A42F0010213
:101054001A62D6E7FFF71CFB0646474B1B6A13F0E0
:10106400020F08D0FFF714FB801B41F2883398422B
:10107400F3D9032077E0E5B9E369002B72D03E4A47
:10108400526802F00C02082A56D0022B17D03B4BB0
:1010940000221A66FFF7FCFA0446374B1B6813F06C
:1010A400007F47D0FFF7F4FA001B0228F5D903208C
:1010B40059E0314AD36923F08053D361DCE72F4BE5
:1010C40000221A66FFF7E4FA05462B4B1B6813F05F
:1010D400007F06D0FFF7DCFA401B0228F5D9032075
:1010E40041E0236AB3F5803F1AD023494B6823F4C7
:1010F4007413226A606A024313434B601F4B01223C
:101104001A66FFF7C5FA04461B4B1B6813F0007FF1
:101114000ED1FFF7BDFA001B0228F5D9032022E007
:10112400154A536823F40033A1680B435360DCE78A
:10113400002018E0002016E0012B16D00E4B5B684F
:1011440003F48031226A914211D103F47013626A6C
:1011540093420ED1002006E001207047012002E0F6
:10116400012000E0002002B070BD0120FBE7012057
:10117400F9E70120F7E700BF0010024000004242F7
:101184000F4B5B6803F00C02082A01D00D4870472E
:10119400C3F383420C49885C13F4803F0BD0084BA3
:1011A4005B68C3F34043094AD35C064A02FB00F080
:1011B400B0FBF3F07047064B03FB00F0704700BF31
:1011C4000010024000127A005C1D00086C1D00082B
:1011D40000093D00002800F0A08070B50D460446CB
:1011E400524B1B6803F007038B420BD24F4A136820
:1011F40023F007030B431360136803F007038B42C8
:1012040040F08D80236813F0020F17D013F0040F01
:1012140004D0474A536843F4E0635360236813F0EF
:10122400080F04D0424A536843F460535360404A61
:10123400536823F0F003A1680B435360236813F051
:10124400010F31D06368012B20D0022B25D0384AFE
:10125400126812F0020F64D035494A6822F0030282
:1012640013434B60FFF714FA0646314B5B6803F0F7
:101274000C036268B3EB820F16D0FFF709FA801BE8
:1012840041F288339842F0D9032045E0284A126895
:1012940012F4003FE0D101203EE0254A126812F02A
:1012A400007FD9D1012037E0204B1B6803F00703EE
:1012B400AB420AD91D4A136823F007032B4313607A
:1012C400136803F00703AB422DD1236813F0040F16
:1012D40006D0174A536823F4E063E1680B43536074
:1012E400236813F0080F07D0114A536823F460539E
:1012F400216943EAC1035360FFF742FF0C4B5B686B
:10130400C3F303130B4AD35CD8400B4B18600B4B4D
:101314001868FFF779F9002070BD0120704701209B
:10132400FAE70120F8E70120F6E700BF00200240B9
:1013340000100240441D00080000002008000020A6
:10134400014B1868704700BF0000002008B5FFF784
:10135400F7FF044B5B68C3F30223034AD35CD84012
:1013640008BD00BF00100240541D000808B5FFF777
:10137400E7FF044B5B68C3F3C223034AD35CD84042
:1013840008BD00BF00100240541D000890F83D3015
:10139400DBB2012B2FD1022380F83D300268D368E1
:1013A40043F00103D3600368154A934218D002F551
:1013B4000062934214D0B3F1804F11D0A2F5983259
:1013C40093420DD002F58062934209D002F5806207
:1013D400934205D01A6842F001021A600020704757
:1013E4009A6802F00702062A07D01A6842F001023E
:1013F4001A6000207047012070470020704700BF2A
:10140400002C0140704770477047704770B5044620
:101414000368DE681D6915F0020F10D016F0020F84
:101424000DD06FF002021A610123037703689B69F0
:1014340013F0030F5ED0FFF7E6FF0023237715F0C8
:10144400040F12D016F0040F0FD023686FF00402BB
:101454001A610223237723689B6913F4407F4FD0DA
:101464002046FFF7D0FF0023237715F0080F12D092
:1014740016F0080F0FD023686FF008021A610423D6
:1014840023772368DB6913F0030F40D02046FFF76E
:10149400BAFF0023237715F0100F12D016F0100FA7
:1014A4000FD023686FF010021A6108232377236892
:1014B400DB6913F4407F31D02046FFF7A4FF0023FB
:1014C400237715F0010F02D016F0010F2DD115F07E
:1014D400800F02D016F0800F2FD115F0400F02D0EC
:1014E40016F0400F31D115F0200F02D016F0200F66
:1014F40033D170BDFFF786FF2046FFF785FF9CE7D9
:101504002046FFF77FFF2046FFF77EFFABE720462C
:10151400FFF778FF2046FFF777FFBAE72046FFF78B
:1015240071FF2046FFF770FFC9E723686FF00102DF
:101534001A612046FEF7D4FFC9E723686FF08002E2
:101544001A61204600F0D1F8C7E723686FF0400223
:101554001A612046FFF759FFC5E723686FF02002A0
:101564001A61204600F0C0F8C3E700000368284A67
:10157400904212D002F5006290420ED0B0F1804F3A
:101584000BD0A2F59832904207D002F580629042C7
:1015940003D002F58062904203D123F070034A68BD
:1015A40013431B4A904212D002F5006290420ED0BF
:1015B400B0F1804F0BD0A2F59832904207D002F5DB
:1015C4008062904203D002F58062904203D123F4FA
:1015D4004073CA68134323F080034A6913430360CA
:1015E4008B68C3620B688362094B984203D003F58E
:1015F4000063984201D10B690363012343610369CA
:1016040013F0010F03D0036923F001030361704752
:10161400002C014040B310B5044690F83D30F3B1BE
:10162400022384F83D30214651F8040BFFF79EFF56
:10163400012384F8463084F83E3084F83F3084F83F
:10164400403084F8413084F8423084F8433084F8E0
:10165400443084F8453084F83D30002010BD80F8D3
:101664003C30FEF71DFFDBE70120704790F83C306B
:10167400012B34D010B4012380F83C30022380F8CD
:101684003D3003685A689C6822F0700C0A6842EA8C
:101694000C025A600368134A934212D002F50062A6
:1016A40093420ED0B3F1804F0BD0A2F598329342FF
:1016B40007D002F58062934203D002F58062934220
:1016C40004D124F080044A6814439C60012380F808
:1016D4003D30002380F83C30184610BC704702208F
:1016E400704700BF002C014070477047026802F148
:1016F4000C0353E8003F23F490730C3242E80031AA
:101704000029F3D1026802F1140353E8003F23F0E7
:101714000103143242E800310029F3D1036B012B99
:1017240005D0202380F84230002303637047026809
:1017340002F10C0353E8003F23F010030C3242E89B
:1017440000310029F3D1ECE790F84130DBB2212BD2
:1017540001D0022070478368B3F5805F17D0036A15
:101764005A1C02621A7803685A60C38C9BB2013B0C
:101774009BB2C3844BB90268D36823F08003D3605F
:101784000268D36843F04003D360002070470369C4
:10179400002BE4D1036A1B880268C3F30803536077
:1017A400036A02330362E0E710B504460268136972
:1017B40023F44053C1680B431361836802691343E4
:1017C40042691A430168CB6823F4B05323F00C0335
:1017D4001343CB600268536923F4407381690B435C
:1017E40053610268134B9A4220D0FFF7AFFD0246C3
:1017F40002EB820202EB820263689B00B2FBF3F20B
:101804000D48A0FB02314909642303FB11231B018A
:101814003233A0FB03235B0903F0F00202EB011255
:1018240003F00F03216813448B6010BDFFF79EFD86
:101834000246DDE7003801401F85EB5160B310B567
:10184400044690F8413013B3242384F841302268CD
:10185400D36823F40053D3602046FFF7A5FF226822
:10186400136923F4904313612268536923F02A0314
:1018740053612268D36843F40053D360002060644A
:10188400202384F8413084F84230606310BD80F82E
:101894004030FEF74FFED7E701207047704708B588
:1018A4000168CA6822F04002CA60202280F8412000
:1018B400FFF7F4FF002008BD7047704708B5406A81
:1018C4000023C385C384FFF7F8FF08BD90F84230B6
:1018D400DBB2222B69D18368B3F5805F4FD0826A73
:1018E400B3F5805F04D0002B56D10369002B53D18C
:1018F40003685B681370836A01338362C38D9BB290
:10190400013B9BB2C385002B51D100B583B0026863
:10191400D36823F02003D3600268D36823F4807370
:10192400D3600268536923F001035361202380F8D4
:10193400423000234363036B012B33D10023036341
:10194400026802F10C0353E8003F23F010030C3249
:1019540042E800310029F3D103681A6812F0100F2D
:1019640006D0002201921A6801925B680193019BE0
:10197400818DFEF761FD002003B05DF804FB026970
:10198400002AACD1826A03685B68C3F3080313803E
:10199400836A02338362B1E703685B6803F07F0301
:1019A4001370A8E7FFF788FFE5E7022070470020DF
:1019B4007047000030B583B0044602681368D068ED
:1019C400516913F00F0505D113F0200F02D010F068
:1019D400200F19D12DB111F0010119D110F4907F0C
:1019E40016D1216B01297DD013F0800F03D010F0A4
:1019F400800F40F0188113F0400F03D010F0400F17
:101A040040F0158103B030BD2046FFF75FFFF9E7D2
:101A140013F0010F06D010F4807F03D0626C42F003
:101A24000102626413F0040F04D019B1626C42F035
:101A34000202626413F0020F04D019B1626C42F026
:101A44000402626413F0080F07D010F0200F00D1D5
:101A540019B1626C42F008026264626C002AD1D04F
:101A640013F0200F02D010F0200F29D123685B69F6
:101A740003F04003626C12F0080F00D163B32046F8
:101A8400FFF734FE23685B6913F0400F20D022680F
:101A940002F1140353E8003F23F04003143242E8F8
:101AA40000310029F3D1E36B73B1634A5A63E06BED
:101AB400FEF784FE0028A5D0E06B436B9847A1E7AE
:101AC4002046FFF703FFD1E72046FFF7F6FE99E72C
:101AD4002046FFF7F2FE95E72046FFF7EEFE0023CF
:101AE40063648FE713F0100F3FF47EAF10F0100F14
:101AF4003FF47AAF00230193136801935368019371
:101B0400019B536913F0400F51D0E26B13685B687B
:101B14009BB2002B3FF476AFA18D99427FF672AF52
:101B2400E3859369202B37D0226802F10C0353E834
:101B3400003F23F480730C3242E800310029F3D1D2
:101B4400226802F1140353E8003F23F00103143226
:101B540042E800310029F3D1226802F1140353E86A
:101B6400003F23F04003143242E800310029F3D14E
:101B7400202384F8423000232363226802F10C03FB
:101B840053E8003F23F010030C3242E800310029EF
:101B9400F3D1E06BFEF7EEFD02236363A18DE38DC9
:101BA4009BB2C91A89B22046FEF746FC2AE7A18DEA
:101BB400E38D9BB2C91A89B2E38D9BB2002B3FF42B
:101BC40021AF00293FF41EAF226802F10C0353E851
:101BD400003F23F490730C3242E800300028F3D124
:101BE400226802F1140353E8003F23F00103143286
:101BF40042E800300028F3D1202384F84230002347
:101C04002363226802F10C0353E8003F23F010031E
:101C14000C3242E800300028F3D1022363632046EB
:101C2400FEF70AFCEEE62046FFF78EFDEAE62046C4
:101C3400FFF735FEE6E600BFC118000870B50D4E8B
:101C44000D4D761BB61006D0002455F8043B013424
:101C54009847A642F9D1094E094D00F065F8761B64
:101C6400B61006D0002455F8043B01349847A64228
:101C7400F9D170BD00000000000000000000000069
:101C840000000000830730B548D0541E002A3FD01E
:101C94000346CAB201E0013C3AD303F8012B9D0785
:101CA400F9D1032C2DD9CDB245EA05250F2C45EAEF
:101CB400054536D9A4F1100222F00F0C03F1200ED1
:101CC400E6444FEA121C03F1100242E9045542E9CA
:101CD400025510327245F8D10CF1010214F00C0FC8
:101CE40003EB021204F00F0C13D0ACF1040323F045
:101CF40003030433134442F8045B9342FBD10CF016
:101D040003042CB1CAB21C4403F8012B9C42FBD13E
:101D140030BD64461346002CF4D1F9E7034614465B
:101D2400BFE71A46A446E0E7F8B500BFF8BC08BC14
:101D34009E467047F8B500BFF8BC08BC9E46704785
:101D44000000000000000000010203040607080967
:101D54000000000001020304020304050607080949
:0C1D64000A0B0C0D0E0F10100102000005
:0C1D700000127A000100000010000000CA
:04000005080005C129
:00000001FF
