:020000040800F2
:10000000000001201D04000821030008230300084C
:10001000250300082703000829030008000000004A
:100020000000000000000000000000002B0300089A
:100030002D030008000000002F0300083103000812
:1000400065040008650400086504000865040008EC
:1000500065040008650400086504000865040008DC
:1000600065040008650400086504000865040008CC
:1000700065040008650400086504000865040008BC
:1000800065040008650400086504000865040008AC
:10009000650400086504000865040008650400089C
:1000A000650400086504000865040008650400088C
:1000B000650400086504000865040008650400087C
:1000C000650400086504000865040008650400086C
:1000D0006504000839030008650400086504000889
:1000E000650400086504000865040008650400084C
:1000F000650400086504000865040008650400083C
:10010000650400086504000865040008650400082B
:10011000650400086504000865040008650400081B
:10012000650400086504000865040008650400080B
:1001300000000000000000000000000000000000BF
:1001400000000000000000000000000000000000AF
:10015000000000000000000000000000000000009F
:10016000000000000000000000000000000000008F
:10017000000000000000000000000000000000007F
:10018000000000000000000000000000000000006F
:10019000000000000000000000000000000000005F
:1001A000000000000000000000000000000000004F
:1001B000000000000000000000000000000000003F
:1001C000000000000000000000000000000000002F
:1001D000000000000000000000000000000000001F
:0401E0005FF8E0F1F3
:1001E40082B00A4B9A6942F010029A619A6902F04D
:1001F40010020092009A9A6942F004029A619B6983
:1002040003F004030193019B02B070470010024005
:1002140072B6FEE700B591B02822002106A801F0CD
:10022400B9FA0023019302930393049305930122E3
:1002340006924FF4803307930A9202220D920E9392
:100244004FF4E0130F9306A800F0D2FB80B90F23FC
:10025400019302210291002303934FF480620492DC
:10026400059301A800F0F6FD20B911B05DF804FB78
:10027400FFF7CEFFFFF7CCFF08B500F019F9FFF741
:10028400C9FFFFF7ADFF00F069F84FF47A73072256
:100294000C490D4800F0D7FF64220C490A4801F0CC
:1002A40022FA0B4B1B78002BF6D04FF47A73094AD1
:1002B40012780649044800F0C6FF054B00221A7064
:1002C400EAE700BF54180008740000200C00002066
:1002D400700000207100002082B00E4B9A6942F039
:1002E40001029A619A6902F001020092009ADA69A5
:1002F40042F08052DA61DB6903F080530193019B81
:10030400054A536823F0E06343F00073536002B07E
:10031400704700BF0010024000000140FEE7FEE706
:10032400FEE7FEE7FEE770477047704708B500F048
:10033400D1F808BD08B5024801F076F808BD00BF41
:1003440074000020024B01221A70024B198070477E
:1003540070000020710000207047000008B50A48B2
:100364000A4B03604FF4E133436000238360C360AE
:1003740003610C2242618361C36100F034FF00B960
:1003840008BDFFF745FFFBE774000020003801407B
:1003940030B587B000230293039304930593026856
:1003A4001B4B9A4201D007B030BD03F558439A69FC
:1003B40042F480429A619A6902F480420092009A5F
:1003C4009A6942F004029A619B6903F00403019361
:1003D400019B4FF4007302930223039303230593B9
:1003E4000C4D02A9284600F0CDF94FF48063029326
:1003F40000240394049402A9284600F0C3F9224679
:100404002146252000F08AF8252000F0BFF8CAE72D
:100414000038014000080140FFF79EFF0B480C49DB
:100424000C4A002302E0D458C4500433C4188C424C
:10043400F9D3094A094C002301E013600432A242B3
:10044400FBD301F083F9FFF717FF7047000000208A
:100454000C000020881800080C000020C0000020B8
:10046400FEE7000010B504460E4B18784FF47A737B
:10047400B3FBF0F30C4A1068B0FBF3F000F094F80F
:1004840068B90F2C01D901200AE0002221464FF05F
:10049400FF3000F043F8054B1C60002000E0012011
:1004A40010BD00BF04000020000000200800002050
:1004B40008B5074A136843F010031360032000F0E3
:1004C4001BF80220FFF7CEFFFFF706FF002008BD50
:1004D40000200240034A1168034B1B780B4413604D
:1004E400704700BFBC00002004000020014B1868C6
:1004F400704700BFBC000020074AD36823F4E063C0
:100504001B041B0C000200F4E060034343F0BF63D0
:1005140043F40033D360704700ED00E000B5194B9D
:10052400DB68C3F30223C3F1070CBCF1040F28BF3B
:100534004FF0040C03F1040EBEF1060F18D9033B6F
:100544004FF0FF3E0EFA0CFC21EA0C0199400EFA22
:1005540003F322EA0303194300280BDB0901C9B2A0
:1005640000F1604000F5614080F800135DF804FB81
:100574000023E5E700F00F000901C9B2024B19544A
:10058400F4E700BF00ED00E014ED00E0002807DB15
:1005940000F01F02400901239340024A42F8203030
:1005A400704700BF00E100E00138B0F1807F0BD25A
:1005B4004FF0E0235861054AF02182F8231000200F
:1005C400986107221A6170470120704700ED00E02E
:1005D40090F82130DBB2022B06D00423836300237E
:1005E40080F82030012070470268136823F00E035E
:1005F40013600268136823F001031360036CC16B7A
:10060400012202FA03F34B6080F82120002380F8D2
:10061400203018467047000008B590F82130DBB24E
:10062400022B03D004238363012008BD02681368EE
:1006340023F00E0313600268136823F001031360B0
:1006440003684C4A93424ED9783A934224D01432E8
:10065400934230D0143293422FD0143293422FD08D
:10066400143293422FD0143293422FD01432934237
:100674002FD002F5627293422ED0143293422DD0C1
:10068400143293422CD01432934202D04FF480326D
:1006940003E04FF4805200E00122374B5A600123FB
:1006A40080F82130002380F82030436B002B5ED08B
:1006B40098470020B9E71022EFE74FF48072ECE787
:1006C4004FF48052E9E74FF48032E6E74FF48012AA
:1006D400E3E74FF08072E0E70122DEE71022DCE777
:1006E4004FF48072D9E7254A934224D014329342BE
:1006F40025D01432934224D01432934224D014329D
:10070400934224D01432934224D01432934224D0FE
:1007140002F56272934223D01432934222D01432EF
:10072400934221D01432934202D04FF4803203E03A
:100734004FF4805200E00122114B5A60AFE71022BF
:10074400FAE74FF48072F7E74FF48052F4E74FF47E
:100754008032F1E74FF48012EEE74FF08072EBE75E
:100764000122E9E71022E7E74FF48072E4E7002072
:100774005BE700BF80000240000402400800024022
:100784000000024070B582B00024A446B0E0874D5A
:10079400AA4210D007D9864DAA420CD005F580355F
:1007A400AA4208D013E0A5F58015AA4203D005F5A6
:1007B4007025AA4207D18A68002A62D0012A5BD038
:1007C4004361082403E0A5F58015AA42F3D0BEF1E5
:1007D400FF0F58D80646BEF1FF0F56D84FEA8C02D9
:1007E40033680F25954023EA050304FA02F2134304
:1007F40033604B6813F0805F78D06E4B9A6942F097
:1008040001029A619B6903F001030193019B4FEA82
:100814009C02951C684B53F825600CF003039D0063
:100824000F23AB4026EA0306644B984233D003F50A
:100834008063984200F0988003F58063984200F04A
:10084400958003F58063984200F0928003F58063FD
:10085400984200F08F8003F58063984219D00623F4
:100864001AE0CC68B3E7CC680434B0E7CC68083449
:10087400ADE7CC680C34AAE703610824A7E7002499
:10088400A5E70424A3E7061DA5E7ACF1080292003E
:10089400A6E7052300E00023AB4033430232464D74
:1008A40045F822304B6813F4801F65D0444A93689E
:1008B40043EA0E0393604B6813F4001F62D0404A6E
:1008C400D36843EA0E03D3604B6813F4003F5FD050
:1008D4003B4A536843EA0E0353604B6813F4803F6A
:1008E4005CD0374A136843EA0E0313600CF1010C21
:1008F4000A6832FA0CF357D0012303FA0CF302EA24
:10090400030E33EA0202F1D14A68122A3FF63FAFDE
:10091400122A3FF65CAF01A555F822F0BB07000888
:10092400670800087108000883080008D307000856
:10093400D3070008D3070008D3070008D30700082B
:10094400D3070008D3070008D3070008D30700081B
:10095400D3070008D3070008D3070008D30700080B
:100964006B08000877080008012395E7022393E742
:10097400032391E704238FE7114A936823EA0E03C4
:10098400936098E70E4AD36823EA0E03D3609BE78B
:100994000B4A536823EA0E0353609EE7084A136820
:1009A40023EA0E031360A1E702B070BD0000221019
:1009B4000000311000100240000001400008014016
:1009C4000004014082B0084B1B68084AA2FB0323C1
:1009D4005B0A00FB03F3019300BF019B5A1E0192C3
:1009E400002BF9D102B0704700000020D34D6210F3
:1009F400002800F0F18170B582B00446036813F05A
:100A0400010F2CD0994B5B6803F00C03042B1DD011
:100A1400964B5B6803F00C03082B12D06368B3F5A4
:100A2400803F41D0002B55D103F1804303F50433BB
:100A34001A6822F480321A601A6822F480221A603A
:100A440037E08A4B5B6813F4803FE7D0874B1B6821
:100A540013F4003F03D06368002B00F0BF812368C8
:100A640013F0020F75D0814B5B6813F00C0F5FD04D
:100A74007E4B5B6803F00C03082B54D02369002BD6
:100A840000F08A807A4B01221A60FFF72FFD054699
:100A9400764B1B6813F0020F75D1FFF727FD401B3F
:100AA4000228F5D903209EE1704A136843F4803389
:100AB4001360636843B3FFF719FD05466B4B1B686E
:100AC40013F4003FCBD1FFF711FD401B6428F5D987
:100AD400032088E1B3F5A02F09D0644B1A6822F4EF
:100AE40080321A601A6822F480221A60E1E703F166
:100AF4008043A3F53C331A6842F480221A601A68D2
:100B040042F480321A60D4E7FFF7F0FC0546574BF5
:100B14001B6813F4003FA2D0FFF7E8FC401B6428D5
:100B2400F5D903205FE1514B5B6813F4803FA5D1F5
:100B34004E4B1B6813F0020F03D02369012B40F0C6
:100B44004F814A4A136823F0F803616943EAC103F9
:100B54001360236813F0080F33D0A369002B5CD013
:100B6400434B0122C3F88024FFF7C0FC05463F4BEA
:100B74005B6A13F0020F21D1FFF7B8FC401B022877
:100B8400F5D903202FE1394A136823F0F80361698A
:100B940043EAC1031360DCE7354B00221A60FFF718
:100BA400A5FC0546314B1B6813F0020FD1D0FFF7AB
:100BB4009DFC401B0228F5D9032014E10120FFF716
:100BC40001FF236813F0040F00F09680274BDB69C4
:100BD40013F0805F34D1254BDA6942F08052DA6138
:100BE400DB6903F080530193019B0125214B1B68B2
:100BF40013F4807F26D0E368012B3DD0002B53D122
:100C040003F1804303F504331A6A22F001021A62E5
:100C14001A6A22F004021A6233E0154B0022C3F868
:100C24008024FFF763FC0546104B5B6A13F0020F48
:100C3400C7D0FFF75BFC401B0228F5D90320D2E0A4
:100C44000025D3E70B4A136843F480731360FFF75E
:100C54004DFC0646074B1B6813F4807FCBD1FFF78E
:100C640045FC801B6428F5D90320BCE00010024039
:100C740000004242007000405F4A136A43F00103DF
:100C84001362E36833B3FFF731FC06465A4B1B6A21
:100C940013F0020F2FD1FFF729FC801B41F2883398
:100CA4009842F3D903209EE0052B09D0524B1A6ACF
:100CB40022F001021A621A6A22F004021A62E0E7C0
:100CC4004D4B1A6A42F004021A621A6A42F0010297
:100CD4001A62D6E7FFF70AFC0646474B1B6A13F075
:100CE400020F08D0FFF702FC801B41F288339842C0
:100CF400F3D9032077E0E5B9E369002B72D03E4ACB
:100D0400526802F00C02082A56D0022B17D03B4B33
:100D140000221A66FFF7EAFB0446374B1B6813F000
:100D2400007F47D0FFF7E2FB001B0228F5D9032020
:100D340059E0314AD36923F08053D361DCE72F4B68
:100D440000221A66FFF7D2FB05462B4B1B6813F0F3
:100D5400007F06D0FFF7CAFB401B0228F5D9032009
:100D640041E0236AB3F5803F1AD023494B6823F44A
:100D74007413226A606A024313434B601F4B0122BF
:100D84001A66FFF7B3FB04461B4B1B6813F0007F86
:100D94000ED1FFF7ABFB001B0228F5D9032022E09C
:100DA400154A536823F40033A1680B435360DCE70E
:100DB400002018E0002016E0012B16D00E4B5B68D3
:100DC40003F48031226A914211D103F47013626AF0
:100DD40093420ED1002006E001207047012002E07A
:100DE400012000E0002002B070BD0120FBE70120DB
:100DF400F9E70120F7E700BF00100240000042427B
:100E04000F4B5B6803F00C02082A01D00D487047B1
:100E1400C3F383420C49885C13F4803F0BD0084B26
:100E24005B68C3F34043094AD35C064A02FB00F003
:100E3400B0FBF3F07047064B03FB00F0704700BFB4
:100E44000010024000127A00741800088418000888
:100E540000093D00002800F0A08070B50D4604464E
:100E6400524B1B6803F007038B420BD24F4A1368A3
:100E740023F007030B431360136803F007038B424B
:100E840040F08D80236813F0020F17D013F0040F85
:100E940004D0474A536843F4E0635360236813F073
:100EA400080F04D0424A536843F460535360404AE5
:100EB400536823F0F003A1680B435360236813F0D5
:100EC400010F31D06368012B20D0022B25D0384A82
:100ED400126812F0020F64D035494A6822F0030206
:100EE40013434B60FFF702FB0646314B5B6803F08C
:100EF4000C036268B3EB820F16D0FFF7F7FA801B7E
:100F040041F288339842F0D9032045E0284A126818
:100F140012F4003FE0D101203EE0254A126812F0AD
:100F2400007FD9D1012037E0204B1B6803F0070371
:100F3400AB420AD91D4A136823F007032B431360FD
:100F4400136803F00703AB422DD1236813F0040F99
:100F540006D0174A536823F4E063E1680B435360F7
:100F6400236813F0080F07D0114A536823F4605321
:100F7400216943EAC1035360FFF742FF0C4B5B68EE
:100F8400C3F303130B4AD35CD8400B4B18600B4BD1
:100F94001868FFF767FA002070BD01207047012030
:100FA400FAE70120F8E70120F6E700BF002002403D
:100FB400001002405C180008000000200800002017
:100FC400014B1868704700BF0000002008B5FFF708
:100FD400F7FF044B5B68C3F30223034AD35CD84096
:100FE40008BD00BF001002406C18000808B5FFF7E8
:100FF400E7FF044B5B68C3F3C223034AD35CD840C6
:1010040008BD00BF001002406C180008026802F11D
:101014000C0353E8003F23F490730C3242E8003190
:101024000029F3D1026802F1140353E8003F23F0CE
:101034000103143242E800310029F3D1036B012B80
:1010440005D0202380F842300023036370470268F0
:1010540002F10C0353E8003F23F010030C3242E882
:1010640000310029F3D1ECE790F84130DBB2212BB9
:1010740001D0022070478368B3F5805F17D0036AFC
:101084005A1C02621A7803685A60C38C9BB2013BF3
:101094009BB2C3844BB90268D36823F08003D36046
:1010A4000268D36843F04003D360002070470369AB
:1010B400002BE4D1036A1B880268C3F3080353605E
:1010C400036A02330362E0E710B504460268136959
:1010D40023F44053C1680B431361836802691343CB
:1010E40042691A430168CB6823F4B05323F00C031C
:1010F4001343CB600268536923F4407381690B4343
:1011040053610268134B9A4220D0FFF75FFF0246F7
:1011140002EB820202EB820263689B00B2FBF3F2F1
:101124000D48A0FB02314909642303FB11231B0171
:101134003233A0FB03235B0903F0F00202EB01123C
:1011440003F00F03216813448B6010BDFFF74EFFBB
:101154000246DDE7003801401F85EB512DE9F043DD
:1011640083B005460E4617469946DDF828802C685C
:10117400246836EA04030CBF4FF0010C4FF0000C56
:10118400BC4528D1B8F1FF3FF1D0FFF7AFF9A0EB90
:101194000900404523D8B8F1000F22D02B68DA6843
:1011A40012F0040FE3D0802EE1D0402EDFD01A6875
:1011B40012F0080FDBD0002401941A6801925B68D6
:1011C4000193019B2846FFF721FF08236B6485F8F0
:1011D4004040012000E0002003B0BDE8F08303207C
:1011E400FAE70320F8E760B310B5044690F84130FD
:1011F40013B3242384F841302268D36823F40053C2
:10120400D3602046FFF760FF2268136923F49043FC
:1012140013612268536923F02A0353612268D36857
:1012240043F40053D36000206064202384F84130E9
:1012340084F84230606310BD80F84030FFF7A8F8AE
:10124400D7E7012070472DE9F04182B01E4690F89F
:101254004130DBB2202B56D104460D46904600297E
:1012640055D00AB901204FE000234364212380F8BC
:101274004130FFF73BF90746A4F82480A4F8268000
:10128400A368B3F5805F02D04FF0000814E023692F
:101294002BB34FF000080FE0202384F841300320E3
:1012A40032E038F8023B2268C3F308035360E28C4F
:1012B40092B2013A92B2E284E38C9BB293B100966B
:1012C4003B46002280212046FFF748FF0028E3D157
:1012D400002DE6D015F8012B23685A60E7E7A846ED
:1012E4000025E9E700963B46002240212046FFF70F
:1012F40035FF18B9202384F8413005E0202384F811
:101304004130032000E0022002B0BDE8F08101205A
:10131400FAE7704708B50168CA6822F04002CA605B
:10132400202280F84120FFF7F4FF002008BD704719
:10133400704708B5406A0023C385C384FFF7F8FFEC
:1013440008BD90F84230DBB2222B69D18368B3F533
:10135400805F4FD0826AB3F5805F04D0002B56D1F2
:101364000369002B53D103685B681370836A0133EC
:101374008362C38D9BB2013B9BB2C385002B51D1C9
:1013840000B583B00268D36823F02003D3600268F9
:10139400D36823F48073D3600268536923F0010394
:1013A4005361202380F8423000234363036B012BF5
:1013B40033D100230363026802F10C0353E8003FB6
:1013C40023F010030C3242E800310029F3D1036802
:1013D4001A6812F0100F06D0002201921A680192C6
:1013E4005B680193019B818DFEF7ACFF002003B085
:1013F4005DF804FB0269002AACD1826A03685B6869
:10140400C3F308031380836A02338362B1E703687A
:101414005B6803F07F031370A8E7FFF788FFE5E735
:10142400022070470020704730B583B0044602683C
:101434001368D068516913F00F0505D113F0200F1C
:1014440002D010F0200F19D12DB111F0010119D1E2
:1014540010F4907F16D1216B01297DD013F0800FF9
:1014640003D010F0800F40F0188113F0400F03D028
:1014740010F0400F40F0158103B030BD2046FFF757
:1014840060FFF9E713F0010F06D010F4807F03D05A
:10149400626C42F00102626413F0040F04D019B1CB
:1014A400626C42F00202626413F0020F04D019B1BC
:1014B400626C42F00402626413F0080F07D010F06B
:1014C400200F00D119B1626C42F008026264626CB0
:1014D400002AD1D013F0200F02D010F0200F29D110
:1014E40023685B6903F04003626C12F0080F00D1BB
:1014F40063B32046FFF78AFD23685B6913F0400F4E
:1015040020D0226802F1140353E8003F23F0400383
:10151400143242E800310029F3D1E36B73B1634A1A
:101524005A63E06BFFF778F80028A5D0E06B436BB3
:101534009847A1E72046FFF704FFD1E72046FFF7CD
:10154400F7FE99E72046FFF7F3FE95E72046FFF7FD
:10155400EFFE002363648FE713F0100F3FF47EAFB8
:1015640010F0100F3FF47AAF002301931368019336
:1015740053680193019B536913F0400F51D0E26B00
:1015840013685B689BB2002B3FF476AFA18D994240
:101594007FF672AFE3859369202B37D0226802F17E
:1015A4000C0353E8003F23F480730C3242E800310B
:1015B4000029F3D1226802F1140353E8003F23F019
:1015C4000103143242E800310029F3D1226802F108
:1015D400140353E8003F23F04003143242E800317F
:1015E4000029F3D1202384F84230002323632268A6
:1015F40002F10C0353E8003F23F010030C3242E8DD
:1016040000310029F3D1E06BFEF7E2FF02236363AC
:10161400A18DE38D9BB2C91A89B22046FEF792FED2
:101624002AE7A18DE38D9BB2C91A89B2E38D9BB2DF
:10163400002B3FF421AF00293FF41EAF226802F1D2
:101644000C0353E8003F23F490730C3242E800305B
:101654000028F3D1226802F1140353E8003F23F079
:101664000103143242E800300028F3D1202384F827
:10167400423000232363226802F10C0353E8003F45
:1016840023F010030C3242E800300028F3D1022387
:1016940063632046FEF756FEEEE62046FFF7E4FCC1
:1016A400EAE62046FFF736FEE6E600BF37130008F9
:1016B40081628285C28500234364222380F84230FC
:1016C400036923B10268D36843F48073D36002686A
:1016D400536943F0010353610268D36843F0200364
:1016E400D3600020704790F84230DBB2202B29D120
:1016F40010B582B0044639B312B9012002B010BD4E
:101704000123036300234363FFF7D2FF0028F5D1CD
:10171400236B012B01D00120F0E700230193236800
:101724001A6801925B680193019B226802F10C0321
:1017340053E8003F43F010030C3242E80031002923
:10174400F3D1DBE7022070470120D7E770B50D4ED7
:101754000D4D761BB61006D0002455F8043B013419
:101764009847A642F9D1094E094D00F065F8761B59
:10177400B61006D0002455F8043B01349847A6421D
:10178400F9D170BD0000000000000000000000005E
:1017940000000000830730B548D0541E002A3FD013
:1017A4000346CAB201E0013C3AD303F8012B9D077A
:1017B400F9D1032C2DD9CDB245EA05250F2C45EAE4
:1017C400054536D9A4F1100222F00F0C03F1200EC6
:1017D400E6444FEA121C03F1100242E9045542E9BF
:1017E400025510327245F8D10CF1010214F00C0FBD
:1017F40003EB021204F00F0C13D0ACF1040323F03A
:1018040003030433134442F8045B9342FBD10CF00A
:1018140003042CB1CAB21C4403F8012B9C42FBD133
:1018240030BD64461346002CF4D1F9E70346144650
:10183400BFE71A46A446E0E7F8B500BFF8BC08BC09
:101844009E467047F8B500BFF8BC08BC9E4670477A
:1018540077646E6D640A0000000000000000000060
:101864000102030406070809000000000102030442
:1018740002030405060708090A0B0C0D0E0F1010CD
:04188400010200005D
:0C18880000127A000100000010000000B7
:040000050800041DCE
:00000001FF
