:020000040800F2
:1000000000000120C90400082103000823030008A0
:10001000250300082703000829030008000000004A
:100020000000000000000000000000002B0300089A
:100030002D030008000000002F0300083103000812
:100040001105000811050008110500081105000838
:100050001105000811050008110500081105000828
:100060001105000811050008110500081105000818
:1000700011050008110500086503000811050008B6
:1000800011050008110500081105000811050008F8
:1000900011050008110500081105000811050008E8
:1000A0001105000875030008110500081105000876
:1000B00011050008110500081105000811050008C8
:1000C00011050008110500081105000811050008B8
:1000D0001105000885030008110500081105000836
:1000E0001105000811050008110500081105000898
:1000F0001105000811050008110500081105000888
:100100001105000811050008110500081105000877
:100110001105000811050008110500081105000867
:100120001105000811050008110500081105000857
:1001300000000000000000000000000000000000BF
:1001400000000000000000000000000000000000AF
:10015000000000000000000000000000000000009F
:10016000000000000000000000000000000000008F
:10017000000000000000000000000000000000007F
:10018000000000000000000000000000000000006F
:10019000000000000000000000000000000000005F
:1001A000000000000000000000000000000000004F
:1001B000000000000000000000000000000000003F
:1001C000000000000000000000000000000000002F
:1001D000000000000000000000000000000000001F
:0401E0005FF8E0F1F3
:1001E40000B583B00A4B5A6942F001025A615B6957
:1001F40003F001030193019B002211460E2000F03D
:10020400E3F90E2000F018FA03B05DF804FB00BF18
:100214000010024082B00A4B9A6942F010029A61BF
:100224009A6902F010020092009A9A6942F004025C
:100234009A619B6903F004030193019B02B0704728
:100244000010024072B6FEE700B591B028220021EA
:1002540006A801F079FD002301930293039304930C
:100264000593012206924FF4803307930A920222E7
:100274000D920E934FF4E0130F9306A800F02AFE9C
:1002840080B90F23019302210291002303934FF4B9
:1002940080620492059301A801F04EF820B911B0D0
:1002A4005DF804FBFFF7CEFFFFF7CCFF08B500F0C5
:1002B40055F9FFF7C9FFFFF7ADFFFFF791FF00F016
:1002C40089F805220249034801F0B0FAFEE700BFAD
:1002D40000000020A400002082B00E4B9A6942F076
:1002E40001029A619A6902F001020092009ADA69A5
:1002F40042F08052DA61DB6903F080530193019B81
:10030400054A536823F0E06343F00073536002B07E
:10031400704700BF0010024000000140FEE7FEE706
:10032400FEE7FEE7FEE770477047704708B500F048
:1003340027F9084B1A68084BA3FB02139B094FF4D7
:100344007A7101FB132303B108BD0121034800F0B6
:10035400A1FDF9E7EC000020D34D62100008014034
:1003640008B5024800F000FB08BD00BF6000002093
:1003740008B5024801F0C0F808BD00BF180000200D
:1003840008B5024801F078FB08BD00BFA4000020B6
:10039400024B01221A70024B19807047140000208E
:1003A40016000020704700000268094B9A4200D0F2
:1003B40070471A6A22F001021A625A6C22F400424F
:1003C4005A640268136823F001031360F0E700BF66
:1003D400002C014008B50A480A4B03604FF4E1338E
:1003E400436000238360C36003610C224261836124
:1003F400C36101F0EBF900B908BDFFF723FFFBE788
:10040400A40000200038014070B586B00023029398
:100414000393049305930268264B9A4201D006B0D5
:1004240070BD044603F558439A6942F480429A61C8
:100434009A6902F480420092009A9A6942F0040296
:100444009A619B6903F004030193019B4FF40073C9
:1004540002930223039303230593174E02A9304604
:1004640000F0F8FB4FF48063029300250395049594
:1004740002A9304600F0EEFB1048114B0360102334
:10048400436085608023C360056145618561C56102
:1004940000F00AF958B9094BA3635C6200221146C3
:1004A400252000F091F8252000F0C6F8B7E7FFF703
:1004B400C9FEF0E700380140000801406000002058
:1004C40044000240FFF76EFF0B480C490C4A00231E
:1004D40002E0D458C4500433C4188C42F9D3094AF6
:1004E400094C002301E013600432A242FBD301F063
:1004F40007FCFFF7DBFE704700000020140000201B
:10050400341E000814000020F0000020FEE7000064
:1005140010B504460E4B18784FF47A73B3FBF0F31E
:100524000C4A1068B0FBF3F000F094F868B90F2C93
:1005340001D901200AE0002221464FF0FF3000F0EB
:1005440043F8054B1C60002000E0012010BD00BFF3
:100554000C000020080000201000002008B5074A05
:10056400136843F010031360032000F01BF802200B
:10057400FFF7CEFFFFF7B0FE002008BD00200240C9
:10058400034A1168034B1B780B441360704700BF88
:10059400EC0000200C000020014B1868704700BFDD
:1005A400EC000020074AD36823F4E0631B041B0C0F
:1005B400000200F4E060034343F0BF6343F40033FC
:1005C400D360704700ED00E000B5194BDB68C3F35E
:1005D4000223C3F1070CBCF1040F28BF4FF0040C35
:1005E40003F1040EBEF1060F18D9033B4FF0FF3E92
:1005F4000EFA0CFC21EA0C0199400EFA03F322EAEC
:100604000303194300280BDB0901C9B200F1604060
:1006140000F5614080F800135DF804FB0023E5E772
:1006240000F00F000901C9B2024B1954F4E700BFEE
:1006340000ED00E014ED00E0002807DB00F01F02ED
:10064400400901239340024A42F82030704700BF1A
:1006540000E100E00138B0F1807F0BD24FF0E023DD
:100664005861054AF02182F823100020986107227E
:100674001A6170470120704700ED00E030B4012496
:10068400056CAC40C56B6C60046863604368102BF8
:1006940005D0036899600368DA6030BC704703686A
:1006A4009A600368D960F8E700283AD010B402468B
:1006B40000681D4B984229D81C4B03441C49A1FBDC
:1006C40003131B099B0013641A4BD363022382F8A0
:1006D4002130016821F47F5121F03001536894687E
:1006E4002343D468234314692343546923439469FB
:1006F4002343D46923430B43036000209063012305
:1007040082F8213082F8200010BC70470A4B034461
:100714000749A1FB03131B099B001364074BD36315
:10072400D4E70120704700BF07040240F8FFFDBF73
:10073400CDCCCCCC00000240F8FBFDBF000402404D
:1007440038B5044690F82000012832D0012084F8FE
:10075400200094F82100C0B2012804D0002384F8BA
:100764002030022038BD022084F821000020A0633C
:100774002568286820F0010028602046FFF77EFFE6
:10078400E36A5BB12268136843F00E0313602268C6
:10079400136843F0010313600020E3E72268136841
:1007A40023F0040313602268136843F00A03136000
:1007B400EDE70220D6E790F82130DBB2022B06D019
:1007C40004238363002380F82030012070470268EB
:1007D400136823F00E0313600268136823F0010307
:1007E4001360036CC16B012202FA03F34B6080F8BF
:1007F4002120002380F820301846704708B590F86F
:100804002130DBB2022B03D004238363012008BD13
:100814000268136823F00E0313600268136823F060
:100824000103136003684C4A93424ED9783A9342C9
:1008340024D01432934230D0143293422FD0143245
:1008440093422FD0143293422FD0143293422FD09C
:10085400143293422FD002F5627293422ED0143296
:1008640093422DD0143293422CD01432934202D0AE
:100874004FF4803203E04FF4805200E00122374B02
:100884005A60012380F82130002380F82030436B24
:10089400002B5ED098470020B9E71022EFE74FF411
:1008A4008072ECE74FF48052E9E74FF48032E6E7D8
:1008B4004FF48012E3E74FF08072E0E70122DEE7B5
:1008C4001022DCE74FF48072D9E7254A934224D002
:1008D4001432934225D01432934224D014329342DA
:1008E40024D01432934224D01432934224D01432AC
:1008F400934224D002F56272934223D0143293427D
:1009040022D01432934221D01432934202D04FF4B5
:10091400803203E04FF4805200E00122114B5A6010
:10092400AFE71022FAE74FF48072F7E74FF48052F2
:10093400F4E74FF48032F1E74FF48012EEE74FF022
:100944008072EBE70122E9E71022E7E74FF48072B7
:10095400E4E700205BE700BF80000240000402409F
:10096400080002400000024038B5C36B1A680468EE
:100974002568016C04238B40134200F09B8015F022
:10098400040F00F09780236813F0200F03D123682D
:1009940023F00403236003689A4A934246D9783AC1
:1009A400934224D01432934228D01432934227D055
:1009B4001432934227D01432934227D014329342F4
:1009C40027D01432934227D002F56272934226D084
:1009D4001432934225D01432934224D014329342D9
:1009E40002D04FF4802203E04FF4804200E004225E
:1009F400854B5A60C36A03B1984738BD4022F7E774
:100A04004FF48062F4E74FF48042F1E74FF4802220
:100A1400EEE74FF48002EBE74FF08062E8E7042250
:100A2400E6E74022E4E74FF48062E1E7774A934245
:100A340024D01432934225D01432934224D0143259
:100A4400934224D01432934224D01432934224D0BB
:100A54001432934224D002F56272934223D01432AA
:100A6400934222D01432934221D01432934202D0C2
:100A74004FF4802203E04FF4804200E00422644BF0
:100A84005A60B7E74022FAE74FF48062F7E74FF481
:100A94008042F4E74FF48022F1E74FF48002EEE75E
:100AA4004FF08062EBE70422E9E74022E7E74FF4E6
:100AB4008062E4E702238B40134200F0AB8015F020
:100AC400020F00F0A780236813F0200F06D12368DB
:100AD40023F00A032360012380F821300368494A84
:100AE40093424BD9783A934224D0143293422DD076
:100AF400143293422CD0143293422CD014329342A9
:100B04002CD0143293422CD0143293422CD002F5C0
:100B1400627293422BD0143293422AD014329342FD
:100B240029D01432934202D04FF4003203E04FF440
:100B3400005200E00222344B5A60002380F8203037
:100B4400836A002B3FF459AF984756E72022F2E717
:100B54004FF40072EFE74FF40052ECE74FF4003229
:100B6400E9E74FF40012E6E74FF00072E3E70222F0
:100B7400E1E72022DFE74FF40072DCE7234A9342E7
:100B840024D01432934225D01432934224D0143208
:100B9400934224D01432934224D01432934224D06A
:100BA4001432934224D002F56272934223D0143259
:100BB400934222D01432934221D01432934202D071
:100BC4004FF4003203E04FF4005200E00222104BD5
:100BD4005A60B2E72022FAE74FF40072F7E74FF4C5
:100BE4000052F4E74FF40032F1E74FF40012EEE75D
:100BF4004FF00072EBE70222E9E72022E7E74FF427
:100C04000072E4E780000240000402400800024051
:100C140000000240082303FA01F111423FF4EDAE53
:100C240015F0080F3FF4E9AE236823F00E032360A8
:100C3400026CC16B012303FA02F24A60836380F8F9
:100C44002130002380F82030036B002B3FF4D5AE15
:100C54009847D2E670B582B00024A446B0E0874D30
:100C6400AA4210D007D9864DAA420CD005F580358A
:100C7400AA4208D013E0A5F58015AA4203D005F5D1
:100C84007025AA4207D18A68002A62D0012A5BD063
:100C94004361082403E0A5F58015AA42F3D0BEF110
:100CA400FF0F58D80646BEF1FF0F56D84FEA8C0204
:100CB40033680F25954023EA050304FA02F213432F
:100CC40033604B6813F0805F78D06E4B9A6942F0C2
:100CD40001029A619B6903F001030193019B4FEAAE
:100CE4009C02951C684B53F825600CF003039D008F
:100CF4000F23AB4026EA0306644B984233D003F536
:100D04008063984200F0988003F58063984200F075
:100D1400958003F58063984200F0928003F5806328
:100D2400984200F08F8003F58063984219D006231F
:100D34001AE0CC68B3E7CC680434B0E7CC68083474
:100D4400ADE7CC680C34AAE703610824A7E70024C4
:100D5400A5E70424A3E7061DA5E7ACF10802920069
:100D6400A6E7052300E00023AB4033430232464D9F
:100D740045F822304B6813F4801F65D0444A9368C9
:100D840043EA0E0393604B6813F4001F62D0404A99
:100D9400D36843EA0E03D3604B6813F4003F5FD07B
:100DA4003B4A536843EA0E0353604B6813F4803F95
:100DB4005CD0374A136843EA0E0313600CF1010C4C
:100DC4000A6832FA0CF357D0012303FA0CF302EA4F
:100DD400030E33EA0202F1D14A68122A3FF63FAF0A
:100DE400122A3FF65CAF01A555F822F08B0C0008DF
:100DF400370D0008410D0008530D0008A30C00082E
:100E0400A30C0008A30C0008A30C0008A30C000802
:100E1400A30C0008A30C0008A30C0008A30C0008F2
:100E2400A30C0008A30C0008A30C0008A30C0008E2
:100E34003B0D0008470D0008012395E7022393E7C3
:100E4400032391E704238FE7114A936823EA0E03EF
:100E5400936098E70E4AD36823EA0E03D3609BE7B6
:100E64000B4A536823EA0E0353609EE7084A13684B
:100E740023EA0E031360A1E702B070BD0000221044
:100E84000000311000100240000001400008014041
:100E940000040140C36801EA030221EA030141EAB4
:100EA400024101617047000082B0084B1B68084A88
:100EB400A2FB03235B0A00FB03F3019300BF019B26
:100EC4005A1E0192002BF9D102B07047080000208D
:100ED400D34D6210002800F0F18170B582B0044651
:100EE400036813F0010F2CD0994B5B6803F00C03DB
:100EF400042B1DD0964B5B6803F00C03082B12D017
:100F04006368B3F5803F41D0002B55D103F1804392
:100F140003F504331A6822F480321A601A6822F442
:100F240080221A6037E08A4B5B6813F4803FE7D075
:100F3400874B1B6813F4003F03D06368002B00F059
:100F4400BF81236813F0020F75D0814B5B6813F0E7
:100F54000C0F5FD07E4B5B6803F00C03082B54D05E
:100F64002369002B00F08A807A4B01221A60FFF774
:100F740013FB0546764B1B6813F0020F75D1FFF780
:100F84000BFB401B0228F5D903209EE1704A13682D
:100F940043F480331360636843B3FFF7FDFA0546F7
:100FA4006B4B1B6813F4003FCBD1FFF7F5FA401BE2
:100FB4006428F5D9032088E1B3F5A02F09D0644B48
:100FC4001A6822F480321A601A6822F480221A60A5
:100FD400E1E703F18043A3F53C331A6842F480222D
:100FE4001A601A6842F480321A60D4E7FFF7D4FA20
:100FF4000546574B1B6813F4003FA2D0FFF7CCFA09
:10100400401B6428F5D903205FE1514B5B6813F45E
:10101400803FA5D14E4B1B6813F0020F03D0236908
:10102400012B40F04F814A4A136823F0F8036169A9
:1010340043EAC1031360236813F0080F33D0A36994
:10104400002B5CD0434B0122C3F88024FFF7A4FAA1
:1010540005463F4B5B6A13F0020F21D1FFF79CFA60
:10106400401B0228F5D903202FE1394A136823F0E5
:10107400F803616943EAC1031360DCE7354B0022DE
:101084001A60FFF789FA0546314B1B6813F0020F0B
:10109400D1D0FFF781FA401B0228F5D9032014E1CF
:1010A4000120FFF701FF236813F0040F00F096807E
:1010B400274BDB6913F0805F34D1254BDA6942F0AA
:1010C4008052DA61DB6903F080530193019B0125AF
:1010D400214B1B6813F4807F26D0E368012B3DD09D
:1010E400002B53D103F1804303F504331A6A22F031
:1010F40001021A621A6A22F004021A6233E0154BE2
:101104000022C3F88024FFF747FA0546104B5B6AB8
:1011140013F0020FC7D0FFF73FFA401B0228F5D99E
:101124000320D2E00025D3E70B4A136843F480730D
:101134001360FFF731FA0646074B1B6813F4807FF0
:10114400CBD1FFF729FA801B6428F5D90320BCE032
:101154000010024000004242007000405F4A136ADF
:1011640043F001031362E36833B3FFF715FA06464D
:101174005A4B1B6A13F0020F2FD1FFF70DFA801B95
:1011840041F288339842F3D903209EE0052B09D01D
:10119400524B1A6A22F001021A621A6A22F00402FD
:1011A4001A62E0E74D4B1A6A42F004021A621A6AA4
:1011B40042F001021A62D6E7FFF7EEF90646474B02
:1011C4001B6A13F0020F08D0FFF7E6F9801B41F207
:1011D40088339842F3D9032077E0E5B9E369002B1B
:1011E40072D03E4A526802F00C02082A56D0022BF2
:1011F40017D03B4B00221A66FFF7CEF90446374B53
:101204001B6813F0007F47D0FFF7C6F9001B0228C4
:10121400F5D9032059E0314AD36923F08053D361CF
:10122400DCE72F4B00221A66FFF7B6F905462B4B75
:101234001B6813F0007F06D0FFF7AEF9401B0228AD
:10124400F5D9032041E0236AB3F5803F1AD023493E
:101254004B6823F47413226A606A024313434B609D
:101264001F4B01221A66FFF797F904461B4B1B68B4
:1012740013F0007F0ED1FFF78FF9001B0228F5D978
:10128400032022E0154A536823F40033A1680B437A
:101294005360DCE7002018E0002016E0012B16D094
:1012A4000E4B5B6803F48031226A914211D103F43E
:1012B4007013626A93420ED1002006E00120704749
:1012C400012002E0012000E0002002B070BD0120F6
:1012D400FBE70120F9E70120F7E700BF0010024017
:1012E400000042420F4B5B6803F00C02082A01D055
:1012F4000D487047C3F383420C49885C13F4803F64
:101304000BD0084B5B68C3F34043094AD35C064ADD
:1013140002FB00F0B0FBF3F07047064B03FB00F058
:10132400704700BF0010024000127A00201E00081F
:10133400301E000800093D00002800F0A08070B5B0
:101344000D460446524B1B6803F007038B420BD235
:101354004F4A136823F007030B431360136803F029
:1013640007038B4240F08D80236813F0020F17D0DF
:1013740013F0040F04D0474A536843F4E063536006
:10138400236813F0080F04D0424A536843F46053AF
:101394005360404A536823F0F003A1680B43536041
:1013A400236813F0010F31D06368012B20D0022B86
:1013B40025D0384A126812F0020F64D035494A68C1
:1013C40022F0030213434B60FFF7E6F80646314B65
:1013D4005B6803F00C036268B3EB820F16D0FFF76F
:1013E400DBF8801B41F288339842F0D9032045E0B2
:1013F400284A126812F4003FE0D101203EE0254A59
:10140400126812F0007FD9D1012037E0204B1B680D
:1014140003F00703AB420AD91D4A136823F00703FC
:101424002B431360136803F00703AB422DD12368E9
:1014340013F0040F06D0174A536823F4E063E168FD
:101444000B435360236813F0080F07D0114A536805
:1014540023F46053216943EAC1035360FFF742FF59
:101464000C4B5B68C3F303130B4AD35CD8400B4BA0
:1014740018600B4B1868FFF74BF8002070BD012073
:1014840070470120FAE70120F8E70120F6E700BFE2
:101494000020024000100240081E0008080000203E
:1014A40010000020014B1868704700BF080000209E
:1014B40008B5FFF7F7FF044B5B68C3F30223034A45
:1014C400D35CD84008BD00BF00100240181E0008BD
:1014D40008B5FFF7E7FF044B5B68C3F3C223034A75
:1014E400D35CD84008BD00BF00100240181E00089D
:1014F400704770477047704770B504460368DE68EC
:101504001D6915F0020F10D016F0020F0DD06FF008
:1015140002021A610123037703689B6913F0030F26
:101524005ED0FFF7E6FF0023237715F0040F12D0F7
:1015340016F0040F0FD023686FF004021A6102231F
:10154400237723689B6913F4407F4FD02046FFF72D
:10155400D0FF0023237715F0080F12D016F0080FE0
:101564000FD023686FF008021A61042323772368DD
:10157400DB6913F0030F40D02046FFF7BAFF0023C6
:10158400237715F0100F12D016F0100F0FD0236828
:101594006FF010021A61082323772368DB6913F4C0
:1015A400407F31D02046FFF7A4FF0023237715F0B6
:1015B400010F02D016F0010F2DD115F0800F02D0CB
:1015C40016F0800F2FD115F0400F02D016F0400F07
:1015D40031D115F0200F02D016F0200F33D170BD99
:1015E400FFF786FF2046FFF785FF9CE72046FFF7BD
:1015F4007FFF2046FFF77EFFABE72046FFF778FF2B
:101604002046FFF777FFBAE72046FFF771FF204631
:10161400FFF770FFC9E723686FF001021A612046E3
:10162400FEF7C2FEC9E723686FF080021A61204604
:1016340000F012F8C7E723686FF040021A612046F1
:10164400FFF759FFC5E723686FF020021A612046AF
:1016540000F001F8C3E770477047026802F10C0319
:1016640053E8003F23F0C0030C3242E80031002964
:10167400F3D1202380F841307047026802F10C0353
:1016840053E8003F23F490730C3242E80031002900
:10169400F3D1026802F1140353E8003F23F001037D
:1016A400143242E800310029F3D1036B012B05D039
:1016B400202380F84230002303637047026802F15C
:1016C4000C0353E8003F23F010030C3242E80031CE
:1016D4000029F3D1ECE790F84130DBB2212B01D0A3
:1016E400022070478368B3F5805F17D0036A5A1CE1
:1016F40002621A7803685A60C38C9BB2013B9BB2A6
:10170400C3844BB90268D36823F08003D3600268B2
:10171400D36843F04003D360002070470369002B73
:10172400E4D1036A1B880268C3F308035360036AA5
:1017340002330362E0E7000010B50446026813694F
:1017440023F44053C1680B43136183680269134354
:1017540042691A430168CB6823F4B05323F00C03A5
:101764001343CB600268536923F4407381690B43CC
:1017740053610268134B9A4220D0FFF799FE024648
:1017840002EB820202EB820263689B00B2FBF3F27B
:101794000D48A0FB02314909642303FB11231B01FB
:1017A4003233A0FB03235B0903F0F00202EB0112C6
:1017B40003F00F03216813448B6010BDFFF788FE0C
:1017C4000246DDE7003801401F85EB5160B310B5D8
:1017D400044690F8413013B3242384F8413022683E
:1017E400D36823F40053D3602046FFF7A5FF226893
:1017F400136923F4904313612268536923F02A0385
:1018040053612268D36843F40053D36000206064BA
:10181400202384F8413084F84230606310BD80F89E
:101824004030FEF7F1FDD7E70120704738B590F856
:101834004130DBB2202B30D1044600292FD00AB925
:10184400012038BD01628284C284002343642120C4
:1018540084F84100A06B134D8562A06B124DC562E4
:10186400A06B124D0563A06B436320681346021DF1
:10187400A06BFEF765FF23686FF040021A602268D0
:1018840002F1140353E8003F43F08003143242E8AA
:1018940000310029F3D10020D3E70220D1E7012051
:1018A400CFE700BFB71800081F1900082D1900085A
:1018B400704708B50346406A1B681B6813F0200F85
:1018C4001AD10023C384026802F1140353E8003FD1
:1018D40023F08003143242E800310029F3D1026876
:1018E40002F10C0353E8003F43F040030C3242E89A
:1018F40000310029F3D108BDFFF7DAFFFBE708B593
:101904000168CA6822F04002CA60202280F841209F
:10191400FFF7CEFF002008BD704708B5406AFFF707
:10192400FBFF08BD7047704710B5446A23685A69C5
:1019340094F84130DBB2212B10D023685A6902F0AD
:10194400400294F84230DBB2222B11D0636C43F096
:10195400100363642046FFF7E6FF10BD02F0800227
:10196400002AEAD00023E3842046FFF776FEE4E76A
:10197400002AEBD00023E3852046FFF77EFEE5E74F
:1019840008B5406A0023C385C384FFF7CCFF08BDB4
:1019940090F84230DBB2222B69D18368B3F5805FC3
:1019A4004FD0826AB3F5805F04D0002B56D103690F
:1019B400002B53D103685B681370836A013383621D
:1019C400C38D9BB2013B9BB2C385002B51D100B5A3
:1019D40083B00268D36823F02003D3600268D3681D
:1019E40023F48073D3600268536923F001035361C5
:1019F400202380F8423000234363036B012B33D14F
:101A040000230363026802F10C0353E8003F23F050
:101A140010030C3242E800310029F3D103681A683C
:101A240012F0100F06D0002201921A6801925B682E
:101A34000193019B818DFEF7ABFC002003B05DF8A0
:101A440004FB0269002AACD1826A03685B68C3F3B1
:101A540008031380836A02338362B1E703685B6817
:101A640003F07F031370A8E7FFF75CFFE5E70220AC
:101A7400704700207047000030B583B00446026808
:101A84001368D068516913F00F0505D113F0200FC6
:101A940002D010F0200F19D12DB111F0010119D18C
:101AA40010F4907F16D1216B01297DD013F0800FA3
:101AB40003D010F0800F40F0188113F0400F03D0D2
:101AC40010F0400F40F0158103B030BD2046FFF701
:101AD4005FFFF9E713F0010F06D010F4807F03D005
:101AE400626C42F00102626413F0040F04D019B175
:101AF400626C42F00202626413F0020F04D019B166
:101B0400626C42F00402626413F0080F07D010F014
:101B1400200F00D119B1626C42F008026264626C59
:101B2400002AD1D013F0200F02D010F0200F29D1B9
:101B340023685B6903F04003626C12F0080F00D164
:101B440063B32046FFF799FD23685B6913F0400FE8
:101B540020D0226802F1140353E8003F23F040032D
:101B6400143242E800310029F3D1E36B73B1634AC4
:101B74005A63E06BFEF742FE0028A5D0E06B436B8E
:101B84009847A1E72046FFF703FFD1E72046FFF778
:101B9400CAFE99E72046FFF7C6FE95E72046FFF701
:101BA400C2FE002363648FE713F0100F3FF47EAF8F
:101BB40010F0100F3FF47AAF0023019313680193E0
:101BC40053680193019B536913F0400F51D0E26BAA
:101BD40013685B689BB2002B3FF476AFA18D9942EA
:101BE4007FF672AFE3859369202B37D0226802F128
:101BF4000C0353E8003F23F480730C3242E80031B5
:101C04000029F3D1226802F1140353E8003F23F0C2
:101C14000103143242E800310029F3D1226802F1B1
:101C2400140353E8003F23F04003143242E8003128
:101C34000029F3D1202384F842300023236322684F
:101C440002F10C0353E8003F23F010030C3242E886
:101C540000310029F3D1E06BFEF7ADFD022363638D
:101C6400A18DE38D9BB2C91A89B22046FEF790FB81
:101C74002AE7A18DE38D9BB2C91A89B2E38D9BB289
:101C8400002B3FF421AF00293FF41EAF226802F17C
:101C94000C0353E8003F23F490730C3242E8003005
:101CA4000028F3D1226802F1140353E8003F23F023
:101CB4000103143242E800300028F3D1202384F8D1
:101CC400423000232363226802F10C0353E8003FEF
:101CD40023F010030C3242E800300028F3D1022331
:101CE40063632046FEF754FBEEE62046FFF7F3FC61
:101CF400EAE62046FFF703FEE6E600BF8519000882
:101D040070B50D4E0D4D761BB61006D0002455F857
:101D1400043B01349847A642F9D1094E094D00F01D
:101D240065F8761BB61006D0002455F8043B013440
:101D34009847A642F9D170BD0000000000000000E1
:101D44000000000000000000830730B548D0541E96
:101D5400002A3FD00346CAB201E0013C3AD303F85B
:101D6400012B9D07F9D1032C2DD9CDB245EA0525C8
:101D74000F2C45EA054536D9A4F1100222F00F0CC8
:101D840003F1200EE6444FEA121C03F1100242E96B
:101D9400045542E9025510327245F8D10CF10102A2
:101DA40014F00C0F03EB021204F00F0C13D0ACF17F
:101DB400040323F003030433134442F8045B934203
:101DC400FBD10CF003042CB1CAB21C4403F8012B60
:101DD4009C42FBD130BD64461346002CF4D1F9E794
:101DE40003461446BFE71A46A446E0E7F8B500BF29
:101DF400F8BC08BC9E467047F8B500BFF8BC08BCE8
:041E04009E4670473F
:101E080000000000000000000102030406070809A2
:101E18000000000001020304020304050607080984
:0C1E28000A0B0C0D0E0F10100102000040
:101E3400616263646500000000127A000100000022
:041E4400100000008A
:04000005080004C922
:00000001FF
